{
  "address": "0x51E6dBD5099Fd515180C92612832aE7B62c0c60c",
  "abi": [
    {
      "inputs": [
        {
          "internalType": "uint32",
          "name": "tokenId",
          "type": "uint32"
        },
        {
          "internalType": "address",
          "name": "erc721Destination",
          "type": "address"
        },
        {
          "internalType": "address",
          "name": "EASWalletAddress",
          "type": "address"
        },
        {
          "internalType": "address",
          "name": "valuesContract",
          "type": "address"
        }
      ],
      "stateMutability": "nonpayable",
      "type": "constructor"
    },
    {
      "anonymous": false,
      "inputs": [
        {
          "indexed": true,
          "internalType": "address",
          "name": "owner",
          "type": "address"
        },
        {
          "indexed": true,
          "internalType": "address",
          "name": "approved",
          "type": "address"
        },
        {
          "indexed": true,
          "internalType": "uint256",
          "name": "tokenId",
          "type": "uint256"
        }
      ],
      "name": "Approval",
      "type": "event"
    },
    {
      "anonymous": false,
      "inputs": [
        {
          "indexed": true,
          "internalType": "address",
          "name": "owner",
          "type": "address"
        },
        {
          "indexed": true,
          "internalType": "address",
          "name": "operator",
          "type": "address"
        },
        {
          "indexed": false,
          "internalType": "bool",
          "name": "approved",
          "type": "bool"
        }
      ],
      "name": "ApprovalForAll",
      "type": "event"
    },
    {
      "anonymous": false,
      "inputs": [
        {
          "indexed": false,
          "internalType": "uint32",
          "name": "stickerId",
          "type": "uint32"
        },
        {
          "indexed": true,
          "internalType": "address",
          "name": "sender",
          "type": "address"
        },
        {
          "indexed": false,
          "internalType": "uint256",
          "name": "price",
          "type": "uint256"
        },
        {
          "indexed": false,
          "internalType": "bytes",
          "name": "packed",
          "type": "bytes"
        }
      ],
      "name": "EASRequestAccepted",
      "type": "event"
    },
    {
      "anonymous": false,
      "inputs": [
        {
          "indexed": false,
          "internalType": "uint32",
          "name": "requestId",
          "type": "uint32"
        },
        {
          "indexed": true,
          "internalType": "address",
          "name": "sender",
          "type": "address"
        },
        {
          "indexed": false,
          "internalType": "uint256",
          "name": "price",
          "type": "uint256"
        },
        {
          "indexed": false,
          "internalType": "bytes",
          "name": "packed",
          "type": "bytes"
        }
      ],
      "name": "EASRequestAdded",
      "type": "event"
    },
    {
      "anonymous": false,
      "inputs": [
        {
          "indexed": false,
          "internalType": "uint32",
          "name": "requestId",
          "type": "uint32"
        },
        {
          "indexed": true,
          "internalType": "address",
          "name": "sender",
          "type": "address"
        },
        {
          "indexed": false,
          "internalType": "uint256",
          "name": "price",
          "type": "uint256"
        },
        {
          "indexed": false,
          "internalType": "bytes",
          "name": "packed",
          "type": "bytes"
        }
      ],
      "name": "EASRequestDenied",
      "type": "event"
    },
    {
      "anonymous": false,
      "inputs": [
        {
          "indexed": false,
          "internalType": "uint32",
          "name": "requestId",
          "type": "uint32"
        },
        {
          "indexed": true,
          "internalType": "address",
          "name": "sender",
          "type": "address"
        },
        {
          "indexed": false,
          "internalType": "uint256",
          "name": "price",
          "type": "uint256"
        },
        {
          "indexed": false,
          "internalType": "bytes",
          "name": "packed",
          "type": "bytes"
        }
      ],
      "name": "EASRequestWithdrew",
      "type": "event"
    },
    {
      "anonymous": false,
      "inputs": [
        {
          "indexed": false,
          "internalType": "uint32",
          "name": "requestId",
          "type": "uint32"
        },
        {
          "indexed": true,
          "internalType": "address",
          "name": "sender",
          "type": "address"
        },
        {
          "indexed": false,
          "internalType": "uint256",
          "name": "price",
          "type": "uint256"
        },
        {
          "indexed": false,
          "internalType": "bytes",
          "name": "packed",
          "type": "bytes"
        }
      ],
      "name": "EASStickerUpdated",
      "type": "event"
    },
    {
      "anonymous": false,
      "inputs": [
        {
          "indexed": true,
          "internalType": "address",
          "name": "sender",
          "type": "address"
        },
        {
          "indexed": true,
          "internalType": "address",
          "name": "changee",
          "type": "address"
        },
        {
          "indexed": false,
          "internalType": "bool",
          "name": "value",
          "type": "bool"
        }
      ],
      "name": "PermissionChange",
      "type": "event"
    },
    {
      "anonymous": false,
      "inputs": [
        {
          "indexed": true,
          "internalType": "address",
          "name": "from",
          "type": "address"
        },
        {
          "indexed": true,
          "internalType": "address",
          "name": "to",
          "type": "address"
        },
        {
          "indexed": true,
          "internalType": "uint256",
          "name": "tokenId",
          "type": "uint256"
        }
      ],
      "name": "Transfer",
      "type": "event"
    },
    {
      "anonymous": false,
      "inputs": [
        {
          "indexed": true,
          "internalType": "address",
          "name": "from",
          "type": "address"
        },
        {
          "indexed": true,
          "internalType": "address",
          "name": "to",
          "type": "address"
        }
      ],
      "name": "TransferedOwnership",
      "type": "event"
    },
    {
      "inputs": [],
      "name": "EASWallet",
      "outputs": [
        {
          "internalType": "contract InfinityMintWallet",
          "name": "",
          "type": "address"
        }
      ],
      "stateMutability": "view",
      "type": "function"
    },
    {
      "inputs": [
        {
          "internalType": "address",
          "name": "sender",
          "type": "address"
        },
        {
          "internalType": "uint32",
          "name": "index",
          "type": "uint32"
        }
      ],
      "name": "acceptRequest",
      "outputs": [],
      "stateMutability": "nonpayable",
      "type": "function"
    },
    {
      "inputs": [
        {
          "internalType": "bytes",
          "name": "packed",
          "type": "bytes"
        }
      ],
      "name": "addRequest",
      "outputs": [],
      "stateMutability": "payable",
      "type": "function"
    },
    {
      "inputs": [
        {
          "internalType": "address",
          "name": "_to",
          "type": "address"
        },
        {
          "internalType": "uint256",
          "name": "_tokenId",
          "type": "uint256"
        }
      ],
      "name": "approve",
      "outputs": [],
      "stateMutability": "nonpayable",
      "type": "function"
    },
    {
      "inputs": [
        {
          "internalType": "address",
          "name": "",
          "type": "address"
        }
      ],
      "name": "approved",
      "outputs": [
        {
          "internalType": "bool",
          "name": "",
          "type": "bool"
        }
      ],
      "stateMutability": "view",
      "type": "function"
    },
    {
      "inputs": [
        {
          "internalType": "address",
          "name": "_owner",
          "type": "address"
        }
      ],
      "name": "balanceOf",
      "outputs": [
        {
          "internalType": "uint256",
          "name": "",
          "type": "uint256"
        }
      ],
      "stateMutability": "view",
      "type": "function"
    },
    {
      "inputs": [
        {
          "internalType": "uint32",
          "name": "stickerId",
          "type": "uint32"
        }
      ],
      "name": "burn",
      "outputs": [],
      "stateMutability": "nonpayable",
      "type": "function"
    },
    {
      "inputs": [],
      "name": "currentStickerId",
      "outputs": [
        {
          "internalType": "uint32",
          "name": "",
          "type": "uint32"
        }
      ],
      "stateMutability": "view",
      "type": "function"
    },
    {
      "inputs": [],
      "name": "currentTokenId",
      "outputs": [
        {
          "internalType": "uint32",
          "name": "",
          "type": "uint32"
        }
      ],
      "stateMutability": "view",
      "type": "function"
    },
    {
      "inputs": [
        {
          "internalType": "address",
          "name": "sender",
          "type": "address"
        },
        {
          "internalType": "uint32",
          "name": "index",
          "type": "uint32"
        }
      ],
      "name": "denyRequest",
      "outputs": [],
      "stateMutability": "nonpayable",
      "type": "function"
    },
    {
      "inputs": [],
      "name": "deployer",
      "outputs": [
        {
          "internalType": "address",
          "name": "",
          "type": "address"
        }
      ],
      "stateMutability": "view",
      "type": "function"
    },
    {
      "inputs": [],
      "name": "erc721",
      "outputs": [
        {
          "internalType": "address",
          "name": "",
          "type": "address"
        }
      ],
      "stateMutability": "view",
      "type": "function"
    },
    {
      "inputs": [],
      "name": "erc721TokenId",
      "outputs": [
        {
          "internalType": "uint256",
          "name": "",
          "type": "uint256"
        }
      ],
      "stateMutability": "view",
      "type": "function"
    },
    {
      "inputs": [
        {
          "internalType": "uint256",
          "name": "_tokenId",
          "type": "uint256"
        }
      ],
      "name": "exists",
      "outputs": [
        {
          "internalType": "bool",
          "name": "",
          "type": "bool"
        }
      ],
      "stateMutability": "view",
      "type": "function"
    },
    {
      "inputs": [
        {
          "internalType": "uint256",
          "name": "_tokenId",
          "type": "uint256"
        }
      ],
      "name": "getApproved",
      "outputs": [
        {
          "internalType": "address",
          "name": "",
          "type": "address"
        }
      ],
      "stateMutability": "view",
      "type": "function"
    },
    {
      "inputs": [],
      "name": "getIntegrity",
      "outputs": [
        {
          "internalType": "address",
          "name": "",
          "type": "address"
        },
        {
          "internalType": "address",
          "name": "",
          "type": "address"
        },
        {
          "internalType": "uint256",
          "name": "",
          "type": "uint256"
        },
        {
          "internalType": "bytes",
          "name": "",
          "type": "bytes"
        },
        {
          "internalType": "bytes4",
          "name": "",
          "type": "bytes4"
        }
      ],
      "stateMutability": "view",
      "type": "function"
    },
    {
      "inputs": [],
      "name": "getMyRequests",
      "outputs": [
        {
          "internalType": "bytes[]",
          "name": "result",
          "type": "bytes[]"
        }
      ],
      "stateMutability": "view",
      "type": "function"
    },
    {
      "inputs": [],
      "name": "getRequestCount",
      "outputs": [
        {
          "internalType": "uint256",
          "name": "",
          "type": "uint256"
        }
      ],
      "stateMutability": "view",
      "type": "function"
    },
    {
      "inputs": [],
      "name": "getRequests",
      "outputs": [
        {
          "internalType": "bytes[]",
          "name": "result",
          "type": "bytes[]"
        }
      ],
      "stateMutability": "view",
      "type": "function"
    },
    {
      "inputs": [
        {
          "internalType": "uint32",
          "name": "stickerId",
          "type": "uint32"
        }
      ],
      "name": "getSticker",
      "outputs": [
        {
          "internalType": "bytes",
          "name": "result",
          "type": "bytes"
        }
      ],
      "stateMutability": "view",
      "type": "function"
    },
    {
      "inputs": [],
      "name": "getStickerCount",
      "outputs": [
        {
          "internalType": "uint256",
          "name": "",
          "type": "uint256"
        }
      ],
      "stateMutability": "view",
      "type": "function"
    },
    {
      "inputs": [],
      "name": "getStickers",
      "outputs": [
        {
          "internalType": "uint32[]",
          "name": "result",
          "type": "uint32[]"
        }
      ],
      "stateMutability": "view",
      "type": "function"
    },
    {
      "inputs": [
        {
          "internalType": "address",
          "name": "_owner",
          "type": "address"
        },
        {
          "internalType": "address",
          "name": "_operator",
          "type": "address"
        }
      ],
      "name": "isApprovedForAll",
      "outputs": [
        {
          "internalType": "bool",
          "name": "",
          "type": "bool"
        }
      ],
      "stateMutability": "view",
      "type": "function"
    },
    {
      "inputs": [
        {
          "internalType": "address",
          "name": "addr",
          "type": "address"
        },
        {
          "internalType": "uint256",
          "name": "tokenId",
          "type": "uint256"
        }
      ],
      "name": "isApprovedOrOwner",
      "outputs": [
        {
          "internalType": "bool",
          "name": "",
          "type": "bool"
        }
      ],
      "stateMutability": "view",
      "type": "function"
    },
    {
      "inputs": [
        {
          "internalType": "address",
          "name": "addr",
          "type": "address"
        }
      ],
      "name": "isAuthenticated",
      "outputs": [
        {
          "internalType": "bool",
          "name": "",
          "type": "bool"
        }
      ],
      "stateMutability": "view",
      "type": "function"
    },
    {
      "inputs": [
        {
          "internalType": "uint32",
          "name": "stickerId",
          "type": "uint32"
        }
      ],
      "name": "isStickerFlagged",
      "outputs": [
        {
          "internalType": "bool",
          "name": "",
          "type": "bool"
        },
        {
          "internalType": "string",
          "name": "",
          "type": "string"
        }
      ],
      "stateMutability": "view",
      "type": "function"
    },
    {
      "inputs": [
        {
          "internalType": "address[]",
          "name": "addrs",
          "type": "address[]"
        }
      ],
      "name": "multiApprove",
      "outputs": [],
      "stateMutability": "nonpayable",
      "type": "function"
    },
    {
      "inputs": [],
      "name": "name",
      "outputs": [
        {
          "internalType": "string",
          "name": "",
          "type": "string"
        }
      ],
      "stateMutability": "view",
      "type": "function"
    },
    {
      "inputs": [
        {
          "internalType": "uint256",
          "name": "",
          "type": "uint256"
        }
      ],
      "name": "openRequests",
      "outputs": [
        {
          "internalType": "address",
          "name": "",
          "type": "address"
        }
      ],
      "stateMutability": "view",
      "type": "function"
    },
    {
      "inputs": [
        {
          "internalType": "uint256",
          "name": "_tokenId",
          "type": "uint256"
        }
      ],
      "name": "ownerOf",
      "outputs": [
        {
          "internalType": "address",
          "name": "",
          "type": "address"
        }
      ],
      "stateMutability": "view",
      "type": "function"
    },
    {
      "inputs": [
        {
          "internalType": "address",
          "name": "_from",
          "type": "address"
        },
        {
          "internalType": "address",
          "name": "_to",
          "type": "address"
        },
        {
          "internalType": "uint256",
          "name": "_tokenId",
          "type": "uint256"
        }
      ],
      "name": "safeTransferFrom",
      "outputs": [],
      "stateMutability": "nonpayable",
      "type": "function"
    },
    {
      "inputs": [
        {
          "internalType": "address",
          "name": "_from",
          "type": "address"
        },
        {
          "internalType": "address",
          "name": "_to",
          "type": "address"
        },
        {
          "internalType": "uint256",
          "name": "_tokenId",
          "type": "uint256"
        },
        {
          "internalType": "bytes",
          "name": "_data",
          "type": "bytes"
        }
      ],
      "name": "safeTransferFrom",
      "outputs": [],
      "stateMutability": "nonpayable",
      "type": "function"
    },
    {
      "inputs": [
        {
          "internalType": "address",
          "name": "_operator",
          "type": "address"
        },
        {
          "internalType": "bool",
          "name": "_approved",
          "type": "bool"
        }
      ],
      "name": "setApprovalForAll",
      "outputs": [],
      "stateMutability": "nonpayable",
      "type": "function"
    },
    {
      "inputs": [
        {
          "internalType": "bool",
          "name": "isEnabled",
          "type": "bool"
        }
      ],
      "name": "setEnabled",
      "outputs": [],
      "stateMutability": "nonpayable",
      "type": "function"
    },
    {
      "inputs": [
        {
          "internalType": "uint32",
          "name": "stickerId",
          "type": "uint32"
        },
        {
          "internalType": "bool",
          "name": "isFlagged",
          "type": "bool"
        },
        {
          "internalType": "string",
          "name": "reason",
          "type": "string"
        }
      ],
      "name": "setFlaggedSticker",
      "outputs": [],
      "stateMutability": "nonpayable",
      "type": "function"
    },
    {
      "inputs": [
        {
          "internalType": "address",
          "name": "addr",
          "type": "address"
        },
        {
          "internalType": "bool",
          "name": "value",
          "type": "bool"
        }
      ],
      "name": "setPrivilages",
      "outputs": [],
      "stateMutability": "nonpayable",
      "type": "function"
    },
    {
      "inputs": [
        {
          "internalType": "uint256",
          "name": "price",
          "type": "uint256"
        }
      ],
      "name": "setStickerPrice",
      "outputs": [],
      "stateMutability": "nonpayable",
      "type": "function"
    },
    {
      "inputs": [
        {
          "internalType": "address",
          "name": "EASWalletAddress",
          "type": "address"
        }
      ],
      "name": "setWalletAddresss",
      "outputs": [],
      "stateMutability": "nonpayable",
      "type": "function"
    },
    {
      "inputs": [],
      "name": "stickerPrice",
      "outputs": [
        {
          "internalType": "uint256",
          "name": "",
          "type": "uint256"
        }
      ],
      "stateMutability": "view",
      "type": "function"
    },
    {
      "inputs": [
        {
          "internalType": "bytes4",
          "name": "interfaceId",
          "type": "bytes4"
        }
      ],
      "name": "supportsInterface",
      "outputs": [
        {
          "internalType": "bool",
          "name": "",
          "type": "bool"
        }
      ],
      "stateMutability": "view",
      "type": "function"
    },
    {
      "inputs": [],
      "name": "symbol",
      "outputs": [
        {
          "internalType": "string",
          "name": "",
          "type": "string"
        }
      ],
      "stateMutability": "view",
      "type": "function"
    },
    {
      "inputs": [
        {
          "internalType": "uint256",
          "name": "stickerId",
          "type": "uint256"
        }
      ],
      "name": "tokenURI",
      "outputs": [
        {
          "internalType": "string",
          "name": "",
          "type": "string"
        }
      ],
      "stateMutability": "view",
      "type": "function"
    },
    {
      "inputs": [],
      "name": "totalSupply",
      "outputs": [
        {
          "internalType": "uint256",
          "name": "",
          "type": "uint256"
        }
      ],
      "stateMutability": "view",
      "type": "function"
    },
    {
      "inputs": [
        {
          "internalType": "address",
          "name": "_from",
          "type": "address"
        },
        {
          "internalType": "address",
          "name": "_to",
          "type": "address"
        },
        {
          "internalType": "uint256",
          "name": "_tokenId",
          "type": "uint256"
        }
      ],
      "name": "transferFrom",
      "outputs": [],
      "stateMutability": "nonpayable",
      "type": "function"
    },
    {
      "inputs": [
        {
          "internalType": "address",
          "name": "addr",
          "type": "address"
        }
      ],
      "name": "transferOwnership",
      "outputs": [],
      "stateMutability": "nonpayable",
      "type": "function"
    },
    {
      "inputs": [],
      "name": "transferOwnershipToTokenOwner",
      "outputs": [],
      "stateMutability": "nonpayable",
      "type": "function"
    },
    {
      "inputs": [
        {
          "internalType": "uint32",
          "name": "stickerId",
          "type": "uint32"
        },
        {
          "internalType": "bytes",
          "name": "packed",
          "type": "bytes"
        }
      ],
      "name": "updateSticker",
      "outputs": [],
      "stateMutability": "nonpayable",
      "type": "function"
    },
    {
      "inputs": [],
      "name": "valuesController",
      "outputs": [
        {
          "internalType": "contract InfinityMintValues",
          "name": "",
          "type": "address"
        }
      ],
      "stateMutability": "view",
      "type": "function"
    },
    {
      "inputs": [],
      "name": "verifyAuthenticity",
      "outputs": [
        {
          "internalType": "bool",
          "name": "",
          "type": "bool"
        }
      ],
      "stateMutability": "view",
      "type": "function"
    },
    {
      "inputs": [],
      "name": "versionType",
      "outputs": [
        {
          "internalType": "bytes",
          "name": "",
          "type": "bytes"
        }
      ],
      "stateMutability": "view",
      "type": "function"
    },
    {
      "inputs": [
        {
          "internalType": "uint32",
          "name": "index",
          "type": "uint32"
        }
      ],
      "name": "withdrawRequest",
      "outputs": [],
      "stateMutability": "nonpayable",
      "type": "function"
    }
  ],
  "transactionHash": "0x9b649a18b9a64e4c937ed49b4dd5a7132aee8425f6e2085aa9005807c7a6f04c",
  "args": [
    0,
    "0xC8EFcFb0F41Db995b7F412D155B9953689bdcB6c",
    "0xC8EFcFb0F41Db995b7F412D155B9953689bdcB6c",
    "0x1239c31F3cf451d3E2b36E104d3747B394a1ee4e"
  ],
  "numDeployments": 1,
  "solcInputHash": "6e9aa7b6a6e3ea130e840e49f0c21c0a",
  "bytecode": "0x60c06040526008608081905267537469636b65727360c01b60a09081526200002b916003919062000234565b503480156200003957600080fd5b506040516200489f3803806200489f8339810160408190526200005c91620002f7565b604080518082018252600c81526b22a0a2299029ba34b1b5b2b960a11b602080830191909152825180840184526004808252634541445360e01b82840152600080546001600160a01b0319908116339081178355825260028552868220805460ff1990811660019081179092559281556008805490931617909155600980546001600160a01b038916921682179055945163e7b6dac960e01b815290810192909252600e60248301526d62617365546f6b656e56616c756560901b60448301529192849163e7b6dac990606401602060405180830381865afa15801562000147573d6000803e3d6000fd5b505050506040513d601f19601f820116820180604052508101906200016d91906200035e565b6200017a90600162000378565b6005555081516200019390601290602085019062000234565b508051620001a990601390602084019062000234565b50505063ffffffff8416601455600480546001600160a01b0319166001600160a01b038581169190911790915560088054610100600160a81b0319166101009285169290920291909117905560408051808201909152600b8082526a454144537469636b65727360a81b6020909201918252620002299160039162000234565b5050505050620003e3565b8280546200024290620003a6565b90600052602060002090601f016020900481019282620002665760008555620002b1565b82601f106200028157805160ff1916838001178555620002b1565b82800160010185558215620002b1579182015b82811115620002b157825182559160200191906001019062000294565b50620002bf929150620002c3565b5090565b5b80821115620002bf5760008155600101620002c4565b80516001600160a01b0381168114620002f257600080fd5b919050565b600080600080608085870312156200030e57600080fd5b845163ffffffff811681146200032357600080fd5b93506200033360208601620002da565b92506200034360408601620002da565b91506200035360608601620002da565b905092959194509250565b6000602082840312156200037157600080fd5b5051919050565b6000816000190483118215151615620003a157634e487b7160e01b600052601160045260246000fd5b500290565b600181811c90821680620003bb57607f821691505b60208210811415620003dd57634e487b7160e01b600052602260045260246000fd5b50919050565b6144ac80620003f36000396000f3fe6080604052600436106102535760003560e01c8063780fae6611610140578063780fae66146103dc5780637a5984c41461059957806383ee7959146105b95780638813ce12146105d957806388782c9c146105fb57806389aae196146106105780638dc225091461063057806391eace8b1461065057806395d89b4114610665578063a22cb4651461067a578063b88d4fde1461069a578063bca6ce64146106ba578063c87b56dd146106da578063cd1a44db146106fa578063d15d41501461071a578063d18256e61461073a578063d49a2a7c1461075a578063d5f3948814610780578063d8b964e6146107a0578063e16d93d3146107d0578063e3892435146107f0578063e985e9c51461080d578063f2fde38b1461082d578063f4aa90c41461084d578063fb5fea841461087b578063fe684c0e1461088e57600080fd5b80629a9b7b1461025857806301ffc9a71461029657806306f5eae7146102c657806306fdde03146102f3578063081812fc14610308578063095ea7b3146103405780630c380cf0146103625780630e7b52c31461038257806310a8c7a91461039757806317239ccc146103b757806318160ddd146103dc57806318ac19501461040157806323b872dd1461042357806324108f891461044357806325f2858f14610463578063328d8f721461048357806332bd9693146104a35780633fad1834146104b857806342842e0e146104cd578063430c2081146104ed5780634f558e791461050d5780636352211e1461052d57806364a11c5e1461054d57806370a08231146105635780637239c5ea14610583575b600080fd5b34801561026457600080fd5b5060045461027c90600160a01b900463ffffffff1681565b60405163ffffffff90911681526020015b60405180910390f35b3480156102a257600080fd5b506102b66102b136600461398c565b6108ae565b604051901515815260200161028d565b3480156102d257600080fd5b506102e66102e13660046139c2565b610900565b60405161028d9190613a37565b3480156102ff57600080fd5b506102e66109d6565b34801561031457600080fd5b50610328610323366004613a4a565b610a68565b6040516001600160a01b03909116815260200161028d565b34801561034c57600080fd5b5061036061035b366004613a78565b610a83565b005b34801561036e57600080fd5b50600954610328906001600160a01b031681565b34801561038e57600080fd5b506102e6610bd8565b3480156103a357600080fd5b506103606103b2366004613aea565b610c66565b3480156103c357600080fd5b506008546103289061010090046001600160a01b031681565b3480156103e857600080fd5b5060065463ffffffff165b60405190815260200161028d565b34801561040d57600080fd5b50610416610cfd565b60405161028d9190613b9b565b34801561042f57600080fd5b5061036061043e366004613be5565b610e3a565b34801561044f57600080fd5b5061036061045e3660046139c2565b610fb5565b34801561046f57600080fd5b5061036061047e366004613c26565b6111c7565b34801561048f57600080fd5b5061036061049e366004613c6d565b61140c565b3480156104af57600080fd5b506102b6611449565b3480156104c457600080fd5b506103f361152d565b3480156104d957600080fd5b506103606104e8366004613be5565b611592565b3480156104f957600080fd5b506102b6610508366004613a78565b6115ad565b34801561051957600080fd5b506102b6610528366004613a4a565b61160c565b34801561053957600080fd5b50610328610548366004613a4a565b611629565b34801561055957600080fd5b506103f360055481565b34801561056f57600080fd5b506103f361057e366004613c8a565b61168e565b34801561058f57600080fd5b506103f360145481565b3480156105a557600080fd5b506103606105b43660046139c2565b6116a9565b3480156105c557600080fd5b506103606105d4366004613d0c565b61173a565b3480156105e557600080fd5b506105ee61181d565b60405161028d9190613d81565b34801561060757600080fd5b50610360611a82565b34801561061c57600080fd5b5061036061062b366004613a4a565b611bfe565b34801561063c57600080fd5b5061036061064b366004613c26565b611c47565b34801561065c57600080fd5b506105ee6121e4565b34801561067157600080fd5b506102e66122c8565b34801561068657600080fd5b50610360610695366004613de3565b6122d7565b3480156106a657600080fd5b506103606106b5366004613e31565b612344565b3480156106c657600080fd5b50600454610328906001600160a01b031681565b3480156106e657600080fd5b506102e66106f5366004613a4a565b612350565b34801561070657600080fd5b50610328610715366004613a4a565b6125c9565b34801561072657600080fd5b506102b6610735366004613c8a565b6125f3565b34801561074657600080fd5b50610360610755366004613e9c565b61262a565b34801561076657600080fd5b5061076f6127c2565b60405161028d959493929190613eeb565b34801561078c57600080fd5b50600054610328906001600160a01b031681565b3480156107ac57600080fd5b506102b66107bb366004613c8a565b60026020526000908152604090205460ff1681565b3480156107dc57600080fd5b506103606107eb366004613c8a565b61288a565b3480156107fc57600080fd5b5060065461027c9063ffffffff1681565b34801561081957600080fd5b506102b6610828366004613f39565b612a29565b34801561083957600080fd5b50610360610848366004613c8a565b612a57565b34801561085957600080fd5b5061086d6108683660046139c2565b612af7565b60405161028d929190613f67565b610360610889366004613f82565b612bf5565b34801561089a57600080fd5b506103606108a9366004613de3565b612ec5565b60006001600160e01b031982166380ac58cd60e01b14806108df57506001600160e01b03198216635b5e139f60e01b145b806108fa57506301ffc9a760e01b6001600160e01b03198316145b92915050565b63ffffffff81166000908152600b6020526040902080546060919061092490613fb6565b1515905061093157600080fd5b63ffffffff82166000908152600b60205260409020805461095190613fb6565b80601f016020809104026020016040519081016040528092919081815260200182805461097d90613fb6565b80156109ca5780601f1061099f576101008083540402835291602001916109ca565b820191906000526020600020905b8154815290600101906020018083116109ad57829003601f168201915b50505050509050919050565b6060601280546109e590613fb6565b80601f0160208091040260200160405190810160405280929190818152602001828054610a1190613fb6565b8015610a5e5780601f10610a3357610100808354040283529160200191610a5e565b820191906000526020600020905b815481529060010190602001808311610a4157829003601f168201915b5050505050905090565b6000908152600f60205260409020546001600160a01b031690565b6000610a8e82611629565b9050806001600160a01b0316836001600160a01b03161415610aee5760405162461bcd60e51b815260206004820152601460248201527331b0b73737ba1030b8383937bb329037bbb732b960611b60448201526064015b60405180910390fd5b336001600160a01b0382161480610b0a5750610b0a8133612a29565b610b7c5760405162461bcd60e51b815260206004820152603d60248201527f4552433732313a20617070726f76652063616c6c6572206973206e6f7420746f60448201527f6b656e206f776e6572206f7220617070726f76656420666f7220616c6c0000006064820152608401610ae5565b6000828152600f602052604080822080546001600160a01b0319166001600160a01b0387811691821790925591518593918516917f8c5be1e5ebec7d5bd14f71427d1e84f3dd0314c0f7b2291e5b200ac8c7c3b92591a4505050565b60038054610be590613fb6565b80601f0160208091040260200160405190810160405280929190818152602001828054610c1190613fb6565b8015610c5e5780601f10610c3357610100808354040283529160200191610c5e565b820191906000526020600020905b815481529060010190602001808311610c4157829003601f168201915b505050505081565b6000546001600160a01b03163314610c905760405162461bcd60e51b8152600401610ae590613feb565b8051610c9b57600080fd5b60005b8151811015610cf957600160026000848481518110610cbf57610cbf614011565b6020908102919091018101516001600160a01b03168252810191909152604001600020805460ff1916911515919091179055600101610c9e565b5050565b60606000805b60065463ffffffff9081169082161015610d545763ffffffff81166000908152600b602052604090208054610d3790613fb6565b159050610d4c5781610d488161403d565b9250505b600101610d03565b5063ffffffff811615610e36578063ffffffff166001600160401b03811115610d7f57610d7f613aa4565b604051908082528060200260200182016040528015610da8578160200160208202803683370190505b5091506000905060005b60065463ffffffff9081169082161015610e345763ffffffff81166000908152600b602052604090208054610de690613fb6565b159050610e2c57808383610df98161403d565b945063ffffffff1681518110610e1157610e11614011565b602002602001019063ffffffff16908163ffffffff16815250505b600101610db2565b505b5090565b610e4433826115ad565b610e885760405162461bcd60e51b81526020600482015260156024820152743737ba1030b8383937bb32b21037b91037bbb732b960591b6044820152606401610ae5565b6001600160a01b038316610ed85760405162461bcd60e51b815260206004820152601760248201527673656e64696e6720746f206e756c6c206164647265737360481b6044820152606401610ae5565b610ee3838383612fa0565b6000818152600f6020908152604080832080546001600160a01b03191690556001600160a01b038616835260119091528120805460019290610f26908490614061565b90915550506001600160a01b0382166000908152601160205260408120805460019290610f54908490614078565b90915550506000818152600d602052604080822080546001600160a01b0319166001600160a01b0386811691821790925591518493918716917fddf252ad1be2c89b69c2b068fc378daa952ba7f163c4a11628f55a4df523b3ef91a4505050565b6001806000828254610fc79190614078565b9091555050600154336000818152600c60205260409020805463ffffffff8516908110610ff657610ff6614011565b90600052602060002001805461100b90613fb6565b1515905061101857600080fd5b6001600160a01b0381166000908152600c6020526040812080548291829163ffffffff881690811061104c5761104c614011565b90600052602060002001805461106190613fb6565b80601f016020809104026020016040519081016040528092919081815260200182805461108d90613fb6565b80156110da5780601f106110af576101008083540402835291602001916110da565b820191906000526020600020905b8154815290600101906020018083116110bd57829003601f168201915b50505050508060200190518101906110f291906140c0565b925092509250836001600160a01b0316826001600160a01b03161461111657600080fd5b6040516001600160a01b0383169084156108fc029085906000818181858888f1935050505015801561114c573d6000803e3d6000fd5b5061115d848763ffffffff16613027565b816001600160a01b03167f539c264d9d06a66685457f3905dfd944e09a729aa1c826ea4b84b5d482ed9d4e87858460405161119a93929190614123565b60405180910390a2505050506001548114610cf95760405162461bcd60e51b8152600401610ae590614148565b6000546001600160a01b03163314806111ef57503360009081526002602052604090205460ff165b61120b5760405162461bcd60e51b8152600401610ae59061416a565b600180600082825461121d9190614078565b90915550506001546001600160a01b0383166000908152600c60205260409020805463ffffffff841690811061125557611255614011565b90600052602060002001805461126a90613fb6565b1515905061127757600080fd5b6001600160a01b0383166000908152600c6020526040812080548291829163ffffffff87169081106112ab576112ab614011565b9060005260206000200180546112c090613fb6565b80601f01602080910402602001604051908101604052809291908181526020018280546112ec90613fb6565b80156113395780601f1061130e57610100808354040283529160200191611339565b820191906000526020600020905b81548152906001019060200180831161131c57829003601f168201915b505050505080602001905181019061135191906140c0565b925092509250611367868663ffffffff16613027565b6040516001600160a01b0383169084156108fc029085906000818181858888f1935050505015801561139d573d6000803e3d6000fd5b50856001600160a01b03167f6969f62ab7b8988531ace070eaf7cc452d709ae6164ac0a51cd8ef85bfeacff18685846040516113db93929190614123565b60405180910390a250505060015481146114075760405162461bcd60e51b8152600401610ae590614148565b505050565b6000546001600160a01b031633146114365760405162461bcd60e51b8152600401610ae590613feb565b6008805460ff1916911515919091179055565b6004546014546000805460405160248101939093526001600160a01b0390811660448401529092839283929091169060640160408051601f198184030181529181526020820180516001600160e01b031663f6c4c9c160e01b179052516114b09190614190565b600060405180830381855afa9150503d80600081146114eb576040519150601f19603f3d011682016040523d82523d6000602084013e6114f0565b606091505b5091509150816115035760009250505090565b8080602001905181019061151791906141ac565b6115245760009250505090565b60019250505090565b600080805b60075481101561158c57600c60006007838154811061155357611553614011565b60009182526020808320909101546001600160a01b031683528201929092526040019020546115829083614078565b9150600101611532565b50919050565b611407838383604051806020016040528060008152506132c7565b6000806115b983611629565b9050806001600160a01b0316846001600160a01b031614806115e057506115e08185612a29565b806116045750836001600160a01b03166115f984610a68565b6001600160a01b0316145b949350505050565b6000908152600d60205260409020546001600160a01b0316151590565b60006116348261160c565b6116725760405162461bcd60e51b815260206004820152600f60248201526e1a5b9d985b1a59081d1bdad95b9259608a1b6044820152606401610ae5565b506000908152600d60205260409020546001600160a01b031690565b6001600160a01b031660009081526011602052604090205490565b6116b9338263ffffffff166115ad565b6116c257600080fd5b63ffffffff81166000908152600b602052604081206116e0916137dc565b63ffffffff81166000908152600f6020908152604080832080546001600160a01b0319908116909155600d83528184208054909116905533835260119091528120805460019290611732908490614061565b909155505050565b6000546001600160a01b031633146117645760405162461bcd60e51b8152600401610ae590613feb565b60065463ffffffff9081169084161061177c57600080fd5b811580156117aa575063ffffffff83166000908152600a6020526040902080546117a590613fb6565b151590505b156117cd5763ffffffff83166000908152600a60205260408120611407916137dc565b81816040516020016117e0929190613f67565b60408051601f1981840301815291815263ffffffff85166000908152600a6020908152919020825161181793919290910190613816565b50505050565b6000546060906001600160a01b031633148061184857503360009081526002602052604090205460ff165b6118645760405162461bcd60e51b8152600401610ae59061416a565b6000805b6007548110156118c257600c60006007838154811061188957611889614011565b60009182526020808320909101546001600160a01b031683528201929092526040019020546118b89083614078565b9150600101611868565b50806001600160401b038111156118db576118db613aa4565b60405190808252806020026020018201604052801561190e57816020015b60608152602001906001900390816118f95790505b5091506000905060005b600754811015610e345760005b600c60006007848154811061193c5761193c614011565b60009182526020808320909101546001600160a01b03168352820192909252604001902054811015611a7957600c60006007848154811061197f5761197f614011565b60009182526020808320909101546001600160a01b0316835282019290925260400190208054829081106119b5576119b5614011565b9060005260206000200180546119ca90613fb6565b80601f01602080910402602001604051908101604052809291908181526020018280546119f690613fb6565b8015611a435780601f10611a1857610100808354040283529160200191611a43565b820191906000526020600020905b815481529060010190602001808311611a2657829003601f168201915b5050505050848480611a54906141c9565b955081518110611a6657611a66614011565b6020908102919091010152600101611925565b50600101611918565b6001806000828254611a949190614078565b9091555050600154600480546014546040516331a9108f60e11b8152928301526000916001600160a01b0390911690636352211e90602401602060405180830381865afa158015611ae9573d6000803e3d6000fd5b505050506040513d601f19601f82011682018060405250810190611b0d91906141e4565b6000549091506001600160a01b0380831691161415611b795760405162461bcd60e51b815260206004820152602260248201527f6f776e6572206f662074686520746f6b656e20697320746865206465706c6f7960448201526132b960f11b6064820152608401610ae5565b336001600160a01b03821614611bd05760405162461bcd60e51b815260206004820152601c60248201527b39b2b73232b91036bab9ba103132903a3432903732bb9037bbb732b960211b6044820152606401610ae5565b611bd981612a57565b506001548114611bfb5760405162461bcd60e51b8152600401610ae590614148565b50565b6000546001600160a01b0316331480611c2657503360009081526002602052604090205460ff165b611c425760405162461bcd60e51b8152600401610ae59061416a565b600555565b6000546001600160a01b0316331480611c6f57503360009081526002602052604090205460ff165b611c8b5760405162461bcd60e51b8152600401610ae59061416a565b6001806000828254611c9d9190614078565b90915550506001546001600160a01b0383166000908152600c60205260409020805463ffffffff8416908110611cd557611cd5614011565b906000526020600020018054611cea90613fb6565b15159050611cf757600080fd5b6001600160a01b0383166000908152600c6020526040812080548291829163ffffffff8716908110611d2b57611d2b614011565b906000526020600020018054611d4090613fb6565b80601f0160208091040260200160405190810160405280929190818152602001828054611d6c90613fb6565b8015611db95780601f10611d8e57610100808354040283529160200191611db9565b820191906000526020600020905b815481529060010190602001808311611d9c57829003601f168201915b5050505050806020019051810190611dd191906140c0565b925092509250816001600160a01b0316866001600160a01b031614611e465760405162461bcd60e51b815260206004820152602560248201527f73656e64657220616e642073617665642073656e646572206172652064696666604482015264195c995b9d60da1b6064820152608401610ae5565b600654611e5b90839063ffffffff1683613337565b828282604051602001611e7093929190614201565b60408051601f1981840301815291815260065463ffffffff166000908152600b60209081529190208251611ea993919290910190613816565b506064831180611eb7575082155b8015611f31575060095460405163e7b6dac960e01b81526002916001600160a01b03169063e7b6dac990611eed9060040161422b565b602060405180830381865afa158015611f0a573d6000803e3d6000fd5b505050506040513d601f19601f82011682018060405250810190611f2e9190614251565b10155b156121625760008315611fe35760095460405163e7b6dac960e01b81526001600160a01b039091169063e7b6dac990611f6c9060040161422b565b602060405180830381865afa158015611f89573d6000803e3d6000fd5b505050506040513d601f19601f82011682018060405250810190611fad9190614251565b611fb860648661426a565b611fc2919061428c565b90506000611fd08286614061565b1115611fe357611fe08185614061565b93505b60045460145460405160009283926001600160a01b0390911691859161200f9160240190815260200190565b60408051601f198184030181529181526020820180516001600160e01b03166304d5c39160e01b179052516120449190614190565b60006040518083038185875af1925050503d8060008114612081576040519150601f19603f3d011682016040523d82523d6000602084013e612086565b606091505b5091509150816120f55780516120ec5760405162461bcd60e51b815260206004820152602560248201527f63616e6e6f74206465706f73697420726f79616c747920746f206d61696e2045604482015264524337323160d81b6064820152608401610ae5565b80518082602001fd5b600860019054906101000a90046001600160a01b03166001600160a01b031663d0e30db0876040518263ffffffff1660e01b81526004016000604051808303818588803b15801561214557600080fd5b505af1158015612159573d6000803e3d6000fd5b50505050505050505b612172868663ffffffff16613027565b600680546001600160a01b038816917f99990c22f7fd4c57460e4343c3fa483b5546966debbf9e3c14986572e221d4ab9163ffffffff169060006121b58361403d565b91906101000a81548163ffffffff021916908363ffffffff16021790555085846040516113db93929190614123565b336000908152600c60209081526040808320805482518185028101850190935280835260609492939192909184015b828210156122bf57838290600052602060002001805461223290613fb6565b80601f016020809104026020016040519081016040528092919081815260200182805461225e90613fb6565b80156122ab5780601f10612280576101008083540402835291602001916122ab565b820191906000526020600020905b81548152906001019060200180831161228e57829003601f168201915b505050505081526020019060010190612213565b50505050905090565b6060601380546109e590613fb6565b3360008181526010602090815260408083206001600160a01b03871680855290835292819020805460ff191686151590811790915590519081529192917f17307eab39ab6107e8899845ad3d59bd9653f200f220920489ca2b5937696c3191015b60405180910390a35050565b611817848484846132c7565b6000818152600e6020526040902080546060919061236d90613fb6565b159050801561239b575063ffffffff82166000908152600b60205260409020805461239790613fb6565b1590505b156123e85760405162461bcd60e51b815260206004820181905260248201527f546f6b656e2055524920666f72206e6f6e206578697374656e7420746f6b656e6044820152606401610ae5565b6000828152600e60205260409020805461240190613fb6565b159050612421576000828152600e60205260409020805461095190613fb6565b63ffffffff82166000908152600b6020526040902080546124cc919061244690613fb6565b80601f016020809104026020016040519081016040528092919081815260200182805461247290613fb6565b80156124bf5780601f10612494576101008083540402835291602001916124bf565b820191906000526020600020905b8154815290600101906020018083116124a257829003601f168201915b5050505050601454613458565b6125175760405162461bcd60e51b815260206004820152601c60248201527b1c995c5d595cdd081a5cc81b9bdd081cd859995b1e481c1858dad95960221b6044820152606401610ae5565b63ffffffff82166000908152600b6020526040812080546125bf919061253c90613fb6565b80601f016020809104026020016040519081016040528092919081815260200182805461256890613fb6565b80156125b55780601f1061258a576101008083540402835291602001916125b5565b820191906000526020600020905b81548152906001019060200180831161259857829003601f168201915b5050505050613478565b5095945050505050565b600781815481106125d957600080fd5b6000918252602090912001546001600160a01b0316905081565b600080546001600160a01b03838116911614806108fa5750506001600160a01b031660009081526002602052604090205460ff1690565b3361263b8163ffffffff85166115ad565b61264457600080fd5b61265082601454613458565b61266c5760405162461bcd60e51b8152600401610ae5906142ab565b60085460ff166126f95760405162461bcd60e51b815260206004820152604c60248201527f737469636b65727320617265206e6f7420656e61626c6564207269676874206e60448201527f6f7720616e64206e65656420746f20626520656e61626c656420696e206f726460648201526b657220746f2075706461746560a01b608482015260a401610ae5565b600061270483613478565b63ffffffff88166000908152600b6020526040812080549296509094506127319350915061253c90613fb6565b9350505050806001600160a01b0316826001600160a01b0316146127945760405162461bcd60e51b815260206004820152601a6024820152793a393cb4b733903a379031b430b733b2903a34329037bbb732b960311b6044820152606401610ae5565b63ffffffff85166000908152600b6020908152604090912085516127ba92870190613816565b505050505050565b6000806000606060003060008054906101000a90046001600160a01b031660145460036335268a9f60e21b8180546127f990613fb6565b80601f016020809104026020016040519081016040528092919081815260200182805461282590613fb6565b80156128725780601f1061284757610100808354040283529160200191612872565b820191906000526020600020905b81548152906001019060200180831161285557829003601f168201915b50505050509150945094509450945094509091929394565b6000546001600160a01b031633146128b45760405162461bcd60e51b8152600401610ae590613feb565b803b6128f65760405162461bcd60e51b81526020600482015260116024820152701a5cc81b9bdd08184818dbdb9d1c9858dd607a1b6044820152606401610ae5565b60008054906101000a90046001600160a01b03166001600160a01b0316816001600160a01b031663d5f394886040518163ffffffff1660e01b8152600401602060405180830381865afa158015612951573d6000803e3d6000fd5b505050506040513d601f19601f8201168201806040525081019061297591906141e4565b6001600160a01b031614612a015760405162461bcd60e51b815260206004820152604760248201527f746865206465706c6f79657220666f72207468697320636f6e7472616374206160448201527f6e64207468652077616c6c657420636f6e7472616374206d757374206265207460648201526668652073616d6560c81b608482015260a401610ae5565b600880546001600160a01b0390921661010002610100600160a81b0319909216919091179055565b6001600160a01b03918216600090815260106020908152604080832093909416825291909152205460ff1690565b6000546001600160a01b03163314612a815760405162461bcd60e51b8152600401610ae590613feb565b600080546001600160a01b03908116825260026020526040808320805460ff1990811690915583546001600160a01b03191692851692831784558284528184208054909116600117905551909133917f93091b3f3cd424efabc74e181f3799f3476ed758412561ed3b29515c51f567529190a350565b63ffffffff81166000908152600a60205260408120805460609190612b1b90613fb6565b15159050612b3b5750506040805160208101909152600080825292909150565b63ffffffff83166000908152600a602052604090208054612b5b90613fb6565b80601f0160208091040260200160405190810160405280929190818152602001828054612b8790613fb6565b8015612bd45780601f10612ba957610100808354040283529160200191612bd4565b820191906000526020600020905b815481529060010190602001808311612bb757829003601f168201915b5050505050806020019051810190612bec9190614302565b91509150915091565b6001806000828254612c079190614078565b90915550506001546005543414612c585760405162461bcd60e51b81526020600482015260156024820152746e6f742074686520737469636b657220707269636560581b6044820152606401610ae5565b612c6482601454613458565b612c805760405162461bcd60e51b8152600401610ae5906142ab565b60085460ff16612ce15760405162461bcd60e51b815260206004820152602660248201527f6e6f206e657720737469636b6572732063616e206265206164646564207269676044820152656874206e6f7760d01b6064820152608401610ae5565b336064612ced8261168e565b10612d865760405162461bcd60e51b815260206004820152605f60248201527f796f752068617665206d696e74656420746865206d6178696d756d20616d6f7560448201527f6e74206f6620737469636b65727320746f20746869732077616c6c65742c207560648201527f736520616e6f746865722077616c6c657420746f206d696e74206d6f72652e00608482015260a401610ae5565b6001600160a01b0381166000908152600c60209081526040918290209151612db49134918591889101614201565b60408051601f19818403018152919052815460018101835560009283526020928390208251612de99491909201920190613816565b50612df3816134a2565b612e4357600780546001810182556000919091527fa66cc928b5edb82af9bd49922954155ab7b0942694bea4ce44661d9a8736c6880180546001600160a01b0319166001600160a01b0383161790555b6001600160a01b0381166000818152600c60205260409020547fee6f3d99a97df3a4e7071686a3397d4bc92ebb8050fc8f0a2ef05ada1f553f8d90612e8a90600190614061565b3486604051612e9b93929190614123565b60405180910390a2506001548114610cf95760405162461bcd60e51b8152600401610ae590614148565b6000546001600160a01b03163314612eef5760405162461bcd60e51b8152600401610ae590613feb565b6000546001600160a01b0383811691161415612f465760405162461bcd60e51b815260206004820152601660248201527531b0b73737ba1036b7b234b33c903232b83637bcb2b960511b6044820152606401610ae5565b6001600160a01b038216600081815260026020908152604091829020805460ff1916851515908117909155915191825233917ff38de818d000d07d091732dd783c6855722d7bc1934d92b7635133289d3416959101612338565b63ffffffff81166000908152600b6020526040812080548392918291612fca919061253c90613fb6565b50925092505082828287604051602001612fe79493929190614348565b60408051601f1981840301815291815263ffffffff85166000908152600b6020908152919020825161301e93919290910190613816565b50505050505050565b6001600160a01b0382166000908152600c602052604081205461304c90600190614061565b116130b457604080516000808252602082019092529061307c565b60608152602001906001900390816130675790505b506001600160a01b0383166000908152600c6020908152604090912082516130aa9391929190910190613896565b50610cf982613502565b6001600160a01b0382166000908152600c60205260408120546130d990600190614061565b6001600160401b038111156130f0576130f0613aa4565b60405190808252806020026020018201604052801561312357816020015b606081526020019060019003908161310e5790505b506001600160a01b0384166000908152600c6020908152604080832080548251818502810185019093528083529495509293909291849084015b8282101561320957838290600052602060002001805461317c90613fb6565b80601f01602080910402602001604051908101604052809291908181526020018280546131a890613fb6565b80156131f55780601f106131ca576101008083540402835291602001916131f5565b820191906000526020600020905b8154815290600101906020018083116131d857829003601f168201915b50505050508152602001906001019061315d565b5050505090506000805b825181101561326f578481146132675782818151811061323557613235614011565b6020026020010151848380613249906141c9565b94508151811061325b5761325b614011565b60200260200101819052505b600101613213565b506001600160a01b0385166000908152600c60209081526040909120845161329992860190613896565b506001600160a01b0385166000908152600c60205260409020546132c0576132c085613502565b5050505050565b6132d2848484610e3a565b6132df338585858561369a565b6118175760405162461bcd60e51b815260206004820152602360248201527f45524337323120526563656976657220436f6e6669726d6174696f6e2049732060448201526210985960ea1b6064820152608401610ae5565b6001600160a01b0383166133785760405162461bcd60e51b81526020600482015260086024820152670c1e0c081b5a5b9d60c21b6044820152606401610ae5565b6133818261160c565b156133bf5760405162461bcd60e51b815260206004820152600e60248201526d185b1c9958591e481b5a5b9d195960921b6044820152606401610ae5565b6001600160a01b03831660009081526011602052604081208054600192906133e8908490614078565b90915550506000828152600d602052604080822080546001600160a01b0319166001600160a01b03871690811790915590518492907fddf252ad1be2c89b69c2b068fc378daa952ba7f163c4a11628f55a4df523b3ef908290a461344f333085858561369a565b61140757600080fd5b60008061346484613478565b50505063ffffffff16831491505092915050565b60006060806000848060200190518101906134939190614393565b93509350935093509193509193565b6000805b6007548110156134f957826001600160a01b0316600782815481106134cd576134cd614011565b6000918252602090912001546001600160a01b031614156134f15750600192915050565b6001016134a6565b50600092915050565b60075461351190600190614061565b613532576040805160008152602081019182905251610cf9916007916138ef565b60075460009061354490600190614061565b6001600160401b0381111561355b5761355b613aa4565b604051908082528060200260200182016040528015613584578160200160208202803683370190505b509050600060078054806020026020016040519081016040528092919081815260200182805480156135df57602002820191906000526020600020905b81546001600160a01b031681526001909101906020018083116135c1575b505050505090506000805b825181101561368657846001600160a01b031683828151811061360f5761360f614011565b60200260200101516001600160a01b0316141561362e576001016135ea565b82818151811061364057613640614011565b6020026020010151848380613654906141c9565b94508151811061366657613666614011565b6001600160a01b03909216602092830291909101909101526001016135ea565b5082516132c09060079060208601906138ef565b6000833b6136aa575060016137d3565b604051630a85bd0160e11b81526001600160a01b0385169063150b7a02906136dc90899089908890889060040161441c565b6020604051808303816000875af1925050508015613717575060408051601f3d908101601f1916820190925261371491810190614459565b60015b6137bd573d808015613745576040519150601f19603f3d011682016040523d82523d6000602084013e61374a565b606091505b5080516137b55760405162461bcd60e51b815260206004820152603360248201527f5468697320636f6e747261637420646f6573206e6f7420696d706c656d656e746044820152721030b71024a2a9219b9918a932b1b2b4bb32b960691b6064820152608401610ae5565b805181602001fd5b6001600160e01b031916630a85bd0160e11b1490505b95945050505050565b5080546137e890613fb6565b6000825580601f106137f8575050565b601f016020900490600052602060002090810190611bfb9190613944565b82805461382290613fb6565b90600052602060002090601f016020900481019282613844576000855561388a565b82601f1061385d57805160ff191683800117855561388a565b8280016001018555821561388a579182015b8281111561388a57825182559160200191906001019061386f565b50610e36929150613944565b8280548282559060005260206000209081019282156138e3579160200282015b828111156138e357825180516138d3918491602090910190613816565b50916020019190600101906138b6565b50610e36929150613959565b82805482825590600052602060002090810192821561388a579160200282015b8281111561388a57825182546001600160a01b0319166001600160a01b0390911617825560209092019160019091019061390f565b5b80821115610e365760008155600101613945565b80821115610e3657600061396d82826137dc565b50600101613959565b6001600160e01b031981168114611bfb57600080fd5b60006020828403121561399e57600080fd5b81356139a981613976565b9392505050565b63ffffffff81168114611bfb57600080fd5b6000602082840312156139d457600080fd5b81356139a9816139b0565b60005b838110156139fa5781810151838201526020016139e2565b838111156118175750506000910152565b60008151808452613a238160208601602086016139df565b601f01601f19169290920160200192915050565b6020815260006139a96020830184613a0b565b600060208284031215613a5c57600080fd5b5035919050565b6001600160a01b0381168114611bfb57600080fd5b60008060408385031215613a8b57600080fd5b8235613a9681613a63565b946020939093013593505050565b634e487b7160e01b600052604160045260246000fd5b604051601f8201601f191681016001600160401b0381118282101715613ae257613ae2613aa4565b604052919050565b60006020808385031215613afd57600080fd5b82356001600160401b0380821115613b1457600080fd5b818501915085601f830112613b2857600080fd5b813581811115613b3a57613b3a613aa4565b8060051b9150613b4b848301613aba565b8181529183018401918481019088841115613b6557600080fd5b938501935b83851015613b8f5784359250613b7f83613a63565b8282529385019390850190613b6a565b98975050505050505050565b6020808252825182820181905260009190848201906040850190845b81811015613bd957835163ffffffff1683529284019291840191600101613bb7565b50909695505050505050565b600080600060608486031215613bfa57600080fd5b8335613c0581613a63565b92506020840135613c1581613a63565b929592945050506040919091013590565b60008060408385031215613c3957600080fd5b8235613c4481613a63565b91506020830135613c54816139b0565b809150509250929050565b8015158114611bfb57600080fd5b600060208284031215613c7f57600080fd5b81356139a981613c5f565b600060208284031215613c9c57600080fd5b81356139a981613a63565b60006001600160401b03821115613cc057613cc0613aa4565b50601f01601f191660200190565b6000613ce1613cdc84613ca7565b613aba565b9050828152838383011115613cf557600080fd5b828260208301376000602084830101529392505050565b600080600060608486031215613d2157600080fd5b8335613d2c816139b0565b92506020840135613d3c81613c5f565b915060408401356001600160401b03811115613d5757600080fd5b8401601f81018613613d6857600080fd5b613d7786823560208401613cce565b9150509250925092565b6000602080830181845280855180835260408601915060408160051b870101925083870160005b82811015613dd657603f19888603018452613dc4858351613a0b565b94509285019290850190600101613da8565b5092979650505050505050565b60008060408385031215613df657600080fd5b8235613e0181613a63565b91506020830135613c5481613c5f565b600082601f830112613e2257600080fd5b6139a983833560208501613cce565b60008060008060808587031215613e4757600080fd5b8435613e5281613a63565b93506020850135613e6281613a63565b92506040850135915060608501356001600160401b03811115613e8457600080fd5b613e9087828801613e11565b91505092959194509250565b60008060408385031215613eaf57600080fd5b8235613eba816139b0565b915060208301356001600160401b03811115613ed557600080fd5b613ee185828601613e11565b9150509250929050565b6001600160a01b038681168252851660208201526040810184905260a060608201819052600090613f1e90830185613a0b565b905063ffffffff60e01b831660808301529695505050505050565b60008060408385031215613f4c57600080fd5b8235613f5781613a63565b91506020830135613c5481613a63565b82151581526040602082015260006116046040830184613a0b565b600060208284031215613f9457600080fd5b81356001600160401b03811115613faa57600080fd5b61160484828501613e11565b600181811c90821680613fca57607f821691505b6020821081141561158c57634e487b7160e01b600052602260045260246000fd5b6020808252600c908201526b3737ba103232b83637bcb2b960a11b604082015260600190565b634e487b7160e01b600052603260045260246000fd5b634e487b7160e01b600052601160045260246000fd5b600063ffffffff8083168181141561405757614057614027565b6001019392505050565b60008282101561407357614073614027565b500390565b6000821982111561408b5761408b614027565b500190565b600061409e613cdc84613ca7565b90508281528383830111156140b257600080fd5b6139a98360208301846139df565b6000806000606084860312156140d557600080fd5b8351925060208401516140e781613a63565b60408501519092506001600160401b0381111561410357600080fd5b8401601f8101861361411457600080fd5b613d7786825160208401614090565b63ffffffff841681528260208201526060604082015260006137d36060830184613a0b565b60208082526008908201526772652d656e74727960c01b604082015260600190565b6020808252600c908201526b1b9bdd08185c1c1c9bdd995960a21b604082015260600190565b600082516141a28184602087016139df565b9190910192915050565b6000602082840312156141be57600080fd5b81516139a981613c5f565b60006000198214156141dd576141dd614027565b5060010190565b6000602082840312156141f657600080fd5b81516139a981613a63565b8381526001600160a01b03831660208201526060604082018190526000906137d390830184613a0b565b6020808252600c908201526b1cdd1a58dad95c94dc1b1a5d60a21b604082015260600190565b60006020828403121561426357600080fd5b5051919050565b60008261428757634e487b7160e01b600052601260045260246000fd5b500490565b60008160001904831182151516156142a6576142a6614027565b500290565b6020808252601d908201527f796f7572207061636b656420737469636b657220697320756e73616665000000604082015260600190565b600082601f8301126142f357600080fd5b6139a983835160208501614090565b6000806040838503121561431557600080fd5b825161432081613c5f565b60208401519092506001600160401b0381111561433c57600080fd5b613ee1858286016142e2565b63ffffffff851681526080602082015260006143676080830186613a0b565b82810360408401526143798186613a0b565b91505060018060a01b038316606083015295945050505050565b600080600080608085870312156143a957600080fd5b84516143b4816139b0565b60208601519094506001600160401b03808211156143d157600080fd5b6143dd888389016142e2565b945060408701519150808211156143f357600080fd5b50614400878288016142e2565b925050606085015161441181613a63565b939692955090935050565b6001600160a01b038581168252841660208201526040810183905260806060820181905260009061444f90830184613a0b565b9695505050505050565b60006020828403121561446b57600080fd5b81516139a98161397656fea264697066735822122098774aed5795dc7d10bb208646c25d96b505262b141831664dee5aa2d9348ac864736f6c634300080c0033",
  "devdoc": {
    "author": "Llydia Cross",
    "kind": "dev",
    "methods": {
      "acceptRequest(address,uint32)": {
        "details": "The index is relative to the amount of stickers the address has sent."
      },
      "addRequest(bytes)": {
        "details": "Its up to the end user to validate the sticker and make sure it is safe. We do various validation and check summing to make sure things are okay."
      },
      "approve(address,uint256)": {
        "details": "will Throw if tokenId does not exist"
      },
      "burn(uint32)": {
        "details": "will delete a sticker forever"
      },
      "constructor": {
        "details": "owner is made owner of this contract"
      },
      "denyRequest(address,uint32)": {
        "details": "The index is relative to the amount of stickers the address has sent."
      },
      "isApprovedOrOwner(address,uint256)": {
        "details": "same as open zepps"
      },
      "ownerOf(uint256)": {
        "details": "will Throw if the token does not exist"
      },
      "safeTransferFrom(address,address,uint256)": {
        "details": "Emits a {Transfer} event."
      },
      "safeTransferFrom(address,address,uint256,bytes)": {
        "details": "Emits a {Transfer} event."
      },
      "supportsInterface(bytes4)": {
        "details": "See {IERC165-supportsInterface}."
      },
      "tokenURI(uint256)": {
        "details": "Will use the sticker object as a tokenURI if none is set."
      },
      "transferFrom(address,address,uint256)": {
        "details": "Emits a {Transfer} event."
      },
      "updateSticker(uint32,bytes)": {
        "details": "NOTE: Right now the deployer does not have to approve changes."
      },
      "withdrawRequest(uint32)": {
        "details": "The index is relative to the amount of stickers the address has sent."
      }
    },
    "title": "InfinityMint Ethereum Ad Service Sticker ERC721",
    "version": 1
  },
  "userdoc": {
    "events": {
      "EASRequestAccepted(uint32,address,uint256,bytes)": {
        "notice": "Emitted when a request is accepted"
      },
      "EASRequestAdded(uint32,address,uint256,bytes)": {
        "notice": "Emitted when a request is added"
      },
      "EASRequestDenied(uint32,address,uint256,bytes)": {
        "notice": "Emitted when a request is denied"
      },
      "EASRequestWithdrew(uint32,address,uint256,bytes)": {
        "notice": "Emitted when a request is withdrew"
      },
      "EASStickerUpdated(uint32,address,uint256,bytes)": {
        "notice": "Emitted when a request is added"
      }
    },
    "kind": "user",
    "methods": {
      "acceptRequest(address,uint32)": {
        "notice": "Accepts a sticker request, minting it as an ERC721"
      },
      "addRequest(bytes)": {
        "notice": "Adds a sticker request for the owner to accept."
      },
      "approve(address,uint256)": {
        "notice": "Sets an approved adress for this token"
      },
      "balanceOf(address)": {
        "notice": "blanceOf returns the number of tokens an address currently holds."
      },
      "burn(uint32)": {
        "notice": "Burns a sticker"
      },
      "denyRequest(address,uint32)": {
        "notice": "Denys a sticker request sending the requestee their money back."
      },
      "erc721TokenId()": {
        "notice": "the erc721 token id must reference this contracts address"
      },
      "exists(uint256)": {
        "notice": "Returns true if a token exists."
      },
      "getApproved(uint256)": {
        "notice": "Returns the approved adress for this token."
      },
      "getIntegrity()": {
        "notice": "Verifys that a deployed contract matches the one we want."
      },
      "isApprovedForAll(address,address)": {
        "notice": "Will returns true if the operator is approved by the owner address"
      },
      "isApprovedOrOwner(address,uint256)": {
        "notice": "will returns true if the address is apprroved for all, approved operator or is the owner of a token"
      },
      "name()": {
        "notice": "Returns the name of the ERC721  for display on places like Etherscan"
      },
      "ownerOf(uint256)": {
        "notice": "Returns the owner of a current token"
      },
      "safeTransferFrom(address,address,uint256)": {
        "notice": "Just like the method above except with no data field we pass to the implemeting contract."
      },
      "safeTransferFrom(address,address,uint256,bytes)": {
        "notice": "Just like transferFrom except we will check if the to address is a contract and is an IERC721Receiver implementer"
      },
      "setApprovalForAll(address,bool)": {
        "notice": "Will approve an operator for the senders tokens"
      },
      "setWalletAddresss(address)": {
        "notice": "Sets the ethereum ad service wallet location"
      },
      "supportsInterface(bytes4)": {
        "notice": "this is used by opensea/polyscan to detect our ERC721"
      },
      "symbol()": {
        "notice": "Returns the symbol of the ERC721 for display on places like Polyscan"
      },
      "tokenURI(uint256)": {
        "notice": "Returns the tokenURI for the sticker objects"
      },
      "transferFrom(address,address,uint256)": {
        "notice": "Transfers a token fsrom one address to another. Use safeTransferFrom as that will double check that the address you send this token too is a contract that can actually receive it."
      },
      "transferOwnershipToTokenOwner()": {
        "notice": "This can be called by the new token owner at any time and it will match the current owner of the contract to the tokenId, in all cases the wallet will still be attached to the owner of the tokenId and when its not it will simply move over permissions of the contract to the new owner"
      },
      "updateSticker(uint32,bytes)": {
        "notice": "Updates a sticker with new data."
      },
      "verifyAuthenticity()": {
        "notice": "verifies that the current owner of this contract"
      },
      "versionType()": {
        "notice": "Should be the name of the contract or the name of this contract"
      },
      "withdrawRequest(uint32)": {
        "notice": "Withdraws a sticker request giving you back your money"
      }
    },
    "notice": "This is an ERC721 contract powering eads stickers, these are attached to every token minted by InfinityMint.",
    "version": 1
  },
  "storageLayout": {
    "storage": [
      {
        "astId": 458,
        "contract": "contracts/legacy/EADStickers.sol:EADStickers",
        "label": "deployer",
        "offset": 0,
        "slot": "0",
        "type": "t_address"
      },
      {
        "astId": 461,
        "contract": "contracts/legacy/EADStickers.sol:EADStickers",
        "label": "executionCount",
        "offset": 0,
        "slot": "1",
        "type": "t_uint256"
      },
      {
        "astId": 465,
        "contract": "contracts/legacy/EADStickers.sol:EADStickers",
        "label": "approved",
        "offset": 0,
        "slot": "2",
        "type": "t_mapping(t_address,t_bool)"
      },
      {
        "astId": 14816,
        "contract": "contracts/legacy/EADStickers.sol:EADStickers",
        "label": "versionType",
        "offset": 0,
        "slot": "3",
        "type": "t_bytes_storage"
      },
      {
        "astId": 14818,
        "contract": "contracts/legacy/EADStickers.sol:EADStickers",
        "label": "erc721",
        "offset": 0,
        "slot": "4",
        "type": "t_address"
      },
      {
        "astId": 14820,
        "contract": "contracts/legacy/EADStickers.sol:EADStickers",
        "label": "currentTokenId",
        "offset": 20,
        "slot": "4",
        "type": "t_uint32"
      },
      {
        "astId": 14822,
        "contract": "contracts/legacy/EADStickers.sol:EADStickers",
        "label": "stickerPrice",
        "offset": 0,
        "slot": "5",
        "type": "t_uint256"
      },
      {
        "astId": 14824,
        "contract": "contracts/legacy/EADStickers.sol:EADStickers",
        "label": "currentStickerId",
        "offset": 0,
        "slot": "6",
        "type": "t_uint32"
      },
      {
        "astId": 14827,
        "contract": "contracts/legacy/EADStickers.sol:EADStickers",
        "label": "openRequests",
        "offset": 0,
        "slot": "7",
        "type": "t_array(t_address)dyn_storage"
      },
      {
        "astId": 14829,
        "contract": "contracts/legacy/EADStickers.sol:EADStickers",
        "label": "enabled",
        "offset": 0,
        "slot": "8",
        "type": "t_bool"
      },
      {
        "astId": 14832,
        "contract": "contracts/legacy/EADStickers.sol:EADStickers",
        "label": "EASWallet",
        "offset": 1,
        "slot": "8",
        "type": "t_contract(InfinityMintWallet)7484"
      },
      {
        "astId": 14835,
        "contract": "contracts/legacy/EADStickers.sol:EADStickers",
        "label": "valuesController",
        "offset": 0,
        "slot": "9",
        "type": "t_contract(InfinityMintValues)7209"
      },
      {
        "astId": 14839,
        "contract": "contracts/legacy/EADStickers.sol:EADStickers",
        "label": "flags",
        "offset": 0,
        "slot": "10",
        "type": "t_mapping(t_uint32,t_bytes_storage)"
      },
      {
        "astId": 14843,
        "contract": "contracts/legacy/EADStickers.sol:EADStickers",
        "label": "stickers",
        "offset": 0,
        "slot": "11",
        "type": "t_mapping(t_uint32,t_bytes_storage)"
      },
      {
        "astId": 14848,
        "contract": "contracts/legacy/EADStickers.sol:EADStickers",
        "label": "requests",
        "offset": 0,
        "slot": "12",
        "type": "t_mapping(t_address,t_array(t_bytes_storage)dyn_storage)"
      },
      {
        "astId": 704,
        "contract": "contracts/legacy/EADStickers.sol:EADStickers",
        "label": "tokens",
        "offset": 0,
        "slot": "13",
        "type": "t_mapping(t_uint256,t_address)"
      },
      {
        "astId": 709,
        "contract": "contracts/legacy/EADStickers.sol:EADStickers",
        "label": "uri",
        "offset": 0,
        "slot": "14",
        "type": "t_mapping(t_uint256,t_string_storage)"
      },
      {
        "astId": 714,
        "contract": "contracts/legacy/EADStickers.sol:EADStickers",
        "label": "approvedTokens",
        "offset": 0,
        "slot": "15",
        "type": "t_mapping(t_uint256,t_address)"
      },
      {
        "astId": 721,
        "contract": "contracts/legacy/EADStickers.sol:EADStickers",
        "label": "operators",
        "offset": 0,
        "slot": "16",
        "type": "t_mapping(t_address,t_mapping(t_address,t_bool))"
      },
      {
        "astId": 726,
        "contract": "contracts/legacy/EADStickers.sol:EADStickers",
        "label": "balance",
        "offset": 0,
        "slot": "17",
        "type": "t_mapping(t_address,t_uint256)"
      },
      {
        "astId": 729,
        "contract": "contracts/legacy/EADStickers.sol:EADStickers",
        "label": "_name",
        "offset": 0,
        "slot": "18",
        "type": "t_string_storage"
      },
      {
        "astId": 732,
        "contract": "contracts/legacy/EADStickers.sol:EADStickers",
        "label": "_symbol",
        "offset": 0,
        "slot": "19",
        "type": "t_string_storage"
      },
      {
        "astId": 13878,
        "contract": "contracts/legacy/EADStickers.sol:EADStickers",
        "label": "erc721TokenId",
        "offset": 0,
        "slot": "20",
        "type": "t_uint256"
      }
    ],
    "types": {
      "t_address": {
        "encoding": "inplace",
        "label": "address",
        "numberOfBytes": "20"
      },
      "t_array(t_address)dyn_storage": {
        "base": "t_address",
        "encoding": "dynamic_array",
        "label": "address[]",
        "numberOfBytes": "32"
      },
      "t_array(t_bytes_storage)dyn_storage": {
        "base": "t_bytes_storage",
        "encoding": "dynamic_array",
        "label": "bytes[]",
        "numberOfBytes": "32"
      },
      "t_bool": {
        "encoding": "inplace",
        "label": "bool",
        "numberOfBytes": "1"
      },
      "t_bytes_storage": {
        "encoding": "bytes",
        "label": "bytes",
        "numberOfBytes": "32"
      },
      "t_contract(InfinityMintValues)7209": {
        "encoding": "inplace",
        "label": "contract InfinityMintValues",
        "numberOfBytes": "20"
      },
      "t_contract(InfinityMintWallet)7484": {
        "encoding": "inplace",
        "label": "contract InfinityMintWallet",
        "numberOfBytes": "20"
      },
      "t_mapping(t_address,t_array(t_bytes_storage)dyn_storage)": {
        "encoding": "mapping",
        "key": "t_address",
        "label": "mapping(address => bytes[])",
        "numberOfBytes": "32",
        "value": "t_array(t_bytes_storage)dyn_storage"
      },
      "t_mapping(t_address,t_bool)": {
        "encoding": "mapping",
        "key": "t_address",
        "label": "mapping(address => bool)",
        "numberOfBytes": "32",
        "value": "t_bool"
      },
      "t_mapping(t_address,t_mapping(t_address,t_bool))": {
        "encoding": "mapping",
        "key": "t_address",
        "label": "mapping(address => mapping(address => bool))",
        "numberOfBytes": "32",
        "value": "t_mapping(t_address,t_bool)"
      },
      "t_mapping(t_address,t_uint256)": {
        "encoding": "mapping",
        "key": "t_address",
        "label": "mapping(address => uint256)",
        "numberOfBytes": "32",
        "value": "t_uint256"
      },
      "t_mapping(t_uint256,t_address)": {
        "encoding": "mapping",
        "key": "t_uint256",
        "label": "mapping(uint256 => address)",
        "numberOfBytes": "32",
        "value": "t_address"
      },
      "t_mapping(t_uint256,t_string_storage)": {
        "encoding": "mapping",
        "key": "t_uint256",
        "label": "mapping(uint256 => string)",
        "numberOfBytes": "32",
        "value": "t_string_storage"
      },
      "t_mapping(t_uint32,t_bytes_storage)": {
        "encoding": "mapping",
        "key": "t_uint32",
        "label": "mapping(uint32 => bytes)",
        "numberOfBytes": "32",
        "value": "t_bytes_storage"
      },
      "t_string_storage": {
        "encoding": "bytes",
        "label": "string",
        "numberOfBytes": "32"
      },
      "t_uint256": {
        "encoding": "inplace",
        "label": "uint256",
        "numberOfBytes": "32"
      },
      "t_uint32": {
        "encoding": "inplace",
        "label": "uint32",
        "numberOfBytes": "4"
      }
    }
  }
}