{
  "address": "0xC8EFcFb0F41Db995b7F412D155B9953689bdcB6c",
  "abi": [
    {
      "inputs": [
        {
          "internalType": "string",
          "name": "tokenName",
          "type": "string"
        },
        {
          "internalType": "string",
          "name": "tokenSymbol",
          "type": "string"
        },
        {
          "internalType": "address",
          "name": "storageContract",
          "type": "address"
        },
        {
          "internalType": "address",
          "name": "valuesContract",
          "type": "address"
        },
        {
          "internalType": "address",
          "name": "minterContract",
          "type": "address"
        },
        {
          "internalType": "address",
          "name": "royaltyContract",
          "type": "address"
        }
      ],
      "stateMutability": "nonpayable",
      "type": "constructor"
    },
    {
      "anonymous": false,
      "inputs": [
        {
          "indexed": true,
          "internalType": "address",
          "name": "owner",
          "type": "address"
        },
        {
          "indexed": true,
          "internalType": "address",
          "name": "approved",
          "type": "address"
        },
        {
          "indexed": true,
          "internalType": "uint256",
          "name": "tokenId",
          "type": "uint256"
        }
      ],
      "name": "Approval",
      "type": "event"
    },
    {
      "anonymous": false,
      "inputs": [
        {
          "indexed": true,
          "internalType": "address",
          "name": "owner",
          "type": "address"
        },
        {
          "indexed": true,
          "internalType": "address",
          "name": "operator",
          "type": "address"
        },
        {
          "indexed": false,
          "internalType": "bool",
          "name": "approved",
          "type": "bool"
        }
      ],
      "name": "ApprovalForAll",
      "type": "event"
    },
    {
      "anonymous": false,
      "inputs": [
        {
          "indexed": true,
          "internalType": "address",
          "name": "sender",
          "type": "address"
        },
        {
          "indexed": true,
          "internalType": "address",
          "name": "changee",
          "type": "address"
        },
        {
          "indexed": false,
          "internalType": "bool",
          "name": "value",
          "type": "bool"
        }
      ],
      "name": "PermissionChange",
      "type": "event"
    },
    {
      "anonymous": false,
      "inputs": [
        {
          "indexed": false,
          "internalType": "uint32",
          "name": "tokenId",
          "type": "uint32"
        },
        {
          "indexed": false,
          "internalType": "bytes",
          "name": "encodedData",
          "type": "bytes"
        },
        {
          "indexed": true,
          "internalType": "address",
          "name": "sender",
          "type": "address"
        }
      ],
      "name": "TokenMinted",
      "type": "event"
    },
    {
      "anonymous": false,
      "inputs": [
        {
          "indexed": true,
          "internalType": "address",
          "name": "sender",
          "type": "address"
        },
        {
          "indexed": false,
          "internalType": "uint256",
          "name": "previewCount",
          "type": "uint256"
        }
      ],
      "name": "TokenPreviewComplete",
      "type": "event"
    },
    {
      "anonymous": false,
      "inputs": [
        {
          "indexed": false,
          "internalType": "uint32",
          "name": "tokenId",
          "type": "uint32"
        },
        {
          "indexed": false,
          "internalType": "bytes",
          "name": "encodedData",
          "type": "bytes"
        },
        {
          "indexed": true,
          "internalType": "address",
          "name": "sender",
          "type": "address"
        }
      ],
      "name": "TokenPreviewMinted",
      "type": "event"
    },
    {
      "anonymous": false,
      "inputs": [
        {
          "indexed": true,
          "internalType": "address",
          "name": "from",
          "type": "address"
        },
        {
          "indexed": true,
          "internalType": "address",
          "name": "to",
          "type": "address"
        },
        {
          "indexed": true,
          "internalType": "uint256",
          "name": "tokenId",
          "type": "uint256"
        }
      ],
      "name": "Transfer",
      "type": "event"
    },
    {
      "anonymous": false,
      "inputs": [
        {
          "indexed": true,
          "internalType": "address",
          "name": "from",
          "type": "address"
        },
        {
          "indexed": true,
          "internalType": "address",
          "name": "to",
          "type": "address"
        }
      ],
      "name": "TransferedOwnership",
      "type": "event"
    },
    {
      "inputs": [
        {
          "internalType": "address",
          "name": "_to",
          "type": "address"
        },
        {
          "internalType": "uint256",
          "name": "_tokenId",
          "type": "uint256"
        }
      ],
      "name": "approve",
      "outputs": [],
      "stateMutability": "nonpayable",
      "type": "function"
    },
    {
      "inputs": [
        {
          "internalType": "address",
          "name": "",
          "type": "address"
        }
      ],
      "name": "approved",
      "outputs": [
        {
          "internalType": "bool",
          "name": "",
          "type": "bool"
        }
      ],
      "stateMutability": "view",
      "type": "function"
    },
    {
      "inputs": [
        {
          "internalType": "address",
          "name": "_owner",
          "type": "address"
        }
      ],
      "name": "balanceOf",
      "outputs": [
        {
          "internalType": "uint256",
          "name": "",
          "type": "uint256"
        }
      ],
      "stateMutability": "view",
      "type": "function"
    },
    {
      "inputs": [],
      "name": "currentTokenId",
      "outputs": [
        {
          "internalType": "uint32",
          "name": "",
          "type": "uint32"
        }
      ],
      "stateMutability": "view",
      "type": "function"
    },
    {
      "inputs": [],
      "name": "deployer",
      "outputs": [
        {
          "internalType": "address",
          "name": "",
          "type": "address"
        }
      ],
      "stateMutability": "view",
      "type": "function"
    },
    {
      "inputs": [
        {
          "internalType": "uint32",
          "name": "tokenId",
          "type": "uint32"
        }
      ],
      "name": "depositStickerRoyalty",
      "outputs": [],
      "stateMutability": "payable",
      "type": "function"
    },
    {
      "inputs": [
        {
          "internalType": "uint32",
          "name": "royaltyType",
          "type": "uint32"
        }
      ],
      "name": "depositSystemRoyalty",
      "outputs": [],
      "stateMutability": "payable",
      "type": "function"
    },
    {
      "inputs": [
        {
          "internalType": "uint256",
          "name": "_tokenId",
          "type": "uint256"
        }
      ],
      "name": "exists",
      "outputs": [
        {
          "internalType": "bool",
          "name": "",
          "type": "bool"
        }
      ],
      "stateMutability": "view",
      "type": "function"
    },
    {
      "inputs": [
        {
          "internalType": "uint256",
          "name": "_tokenId",
          "type": "uint256"
        }
      ],
      "name": "getApproved",
      "outputs": [
        {
          "internalType": "address",
          "name": "",
          "type": "address"
        }
      ],
      "stateMutability": "view",
      "type": "function"
    },
    {
      "inputs": [],
      "name": "getPreview",
      "outputs": [],
      "stateMutability": "nonpayable",
      "type": "function"
    },
    {
      "inputs": [
        {
          "internalType": "address",
          "name": "receiver",
          "type": "address"
        },
        {
          "internalType": "uint32",
          "name": "pathId",
          "type": "uint32"
        },
        {
          "internalType": "uint32",
          "name": "pathSize",
          "type": "uint32"
        },
        {
          "internalType": "uint32[]",
          "name": "colours",
          "type": "uint32[]"
        },
        {
          "internalType": "bytes",
          "name": "mintData",
          "type": "bytes"
        },
        {
          "internalType": "uint32[]",
          "name": "assets",
          "type": "uint32[]"
        },
        {
          "internalType": "string[]",
          "name": "names",
          "type": "string[]"
        }
      ],
      "name": "implicitMint",
      "outputs": [],
      "stateMutability": "nonpayable",
      "type": "function"
    },
    {
      "inputs": [
        {
          "internalType": "address",
          "name": "_owner",
          "type": "address"
        },
        {
          "internalType": "address",
          "name": "_operator",
          "type": "address"
        }
      ],
      "name": "isApprovedForAll",
      "outputs": [
        {
          "internalType": "bool",
          "name": "",
          "type": "bool"
        }
      ],
      "stateMutability": "view",
      "type": "function"
    },
    {
      "inputs": [
        {
          "internalType": "address",
          "name": "addr",
          "type": "address"
        },
        {
          "internalType": "uint256",
          "name": "tokenId",
          "type": "uint256"
        }
      ],
      "name": "isApprovedOrOwner",
      "outputs": [
        {
          "internalType": "bool",
          "name": "",
          "type": "bool"
        }
      ],
      "stateMutability": "view",
      "type": "function"
    },
    {
      "inputs": [
        {
          "internalType": "address",
          "name": "addr",
          "type": "address"
        }
      ],
      "name": "isAuthenticated",
      "outputs": [
        {
          "internalType": "bool",
          "name": "",
          "type": "bool"
        }
      ],
      "stateMutability": "view",
      "type": "function"
    },
    {
      "inputs": [],
      "name": "mint",
      "outputs": [],
      "stateMutability": "payable",
      "type": "function"
    },
    {
      "inputs": [
        {
          "internalType": "bytes",
          "name": "data",
          "type": "bytes"
        }
      ],
      "name": "mintArguments",
      "outputs": [],
      "stateMutability": "payable",
      "type": "function"
    },
    {
      "inputs": [
        {
          "internalType": "uint32",
          "name": "index",
          "type": "uint32"
        }
      ],
      "name": "mintPreview",
      "outputs": [],
      "stateMutability": "payable",
      "type": "function"
    },
    {
      "inputs": [],
      "name": "minterController",
      "outputs": [
        {
          "internalType": "contract Minter",
          "name": "",
          "type": "address"
        }
      ],
      "stateMutability": "view",
      "type": "function"
    },
    {
      "inputs": [],
      "name": "mintsEnabled",
      "outputs": [
        {
          "internalType": "bool",
          "name": "",
          "type": "bool"
        }
      ],
      "stateMutability": "view",
      "type": "function"
    },
    {
      "inputs": [
        {
          "internalType": "address[]",
          "name": "addrs",
          "type": "address[]"
        }
      ],
      "name": "multiApprove",
      "outputs": [],
      "stateMutability": "nonpayable",
      "type": "function"
    },
    {
      "inputs": [],
      "name": "name",
      "outputs": [
        {
          "internalType": "string",
          "name": "",
          "type": "string"
        }
      ],
      "stateMutability": "view",
      "type": "function"
    },
    {
      "inputs": [
        {
          "internalType": "uint256",
          "name": "_tokenId",
          "type": "uint256"
        }
      ],
      "name": "ownerOf",
      "outputs": [
        {
          "internalType": "address",
          "name": "",
          "type": "address"
        }
      ],
      "stateMutability": "view",
      "type": "function"
    },
    {
      "inputs": [],
      "name": "royaltyController",
      "outputs": [
        {
          "internalType": "contract Royalty",
          "name": "",
          "type": "address"
        }
      ],
      "stateMutability": "view",
      "type": "function"
    },
    {
      "inputs": [
        {
          "internalType": "address",
          "name": "_from",
          "type": "address"
        },
        {
          "internalType": "address",
          "name": "_to",
          "type": "address"
        },
        {
          "internalType": "uint256",
          "name": "_tokenId",
          "type": "uint256"
        }
      ],
      "name": "safeTransferFrom",
      "outputs": [],
      "stateMutability": "nonpayable",
      "type": "function"
    },
    {
      "inputs": [
        {
          "internalType": "address",
          "name": "_from",
          "type": "address"
        },
        {
          "internalType": "address",
          "name": "_to",
          "type": "address"
        },
        {
          "internalType": "uint256",
          "name": "_tokenId",
          "type": "uint256"
        },
        {
          "internalType": "bytes",
          "name": "_data",
          "type": "bytes"
        }
      ],
      "name": "safeTransferFrom",
      "outputs": [],
      "stateMutability": "nonpayable",
      "type": "function"
    },
    {
      "inputs": [
        {
          "internalType": "address",
          "name": "_operator",
          "type": "address"
        },
        {
          "internalType": "bool",
          "name": "_approved",
          "type": "bool"
        }
      ],
      "name": "setApprovalForAll",
      "outputs": [],
      "stateMutability": "nonpayable",
      "type": "function"
    },
    {
      "inputs": [
        {
          "internalType": "address",
          "name": "minterContract",
          "type": "address"
        }
      ],
      "name": "setMinterController",
      "outputs": [],
      "stateMutability": "nonpayable",
      "type": "function"
    },
    {
      "inputs": [
        {
          "internalType": "bool",
          "name": "value",
          "type": "bool"
        }
      ],
      "name": "setMintsEnabled",
      "outputs": [],
      "stateMutability": "nonpayable",
      "type": "function"
    },
    {
      "inputs": [
        {
          "internalType": "address",
          "name": "addr",
          "type": "address"
        },
        {
          "internalType": "bool",
          "name": "value",
          "type": "bool"
        }
      ],
      "name": "setPrivilages",
      "outputs": [],
      "stateMutability": "nonpayable",
      "type": "function"
    },
    {
      "inputs": [
        {
          "internalType": "address",
          "name": "royaltyContract",
          "type": "address"
        }
      ],
      "name": "setRoyaltyController",
      "outputs": [],
      "stateMutability": "nonpayable",
      "type": "function"
    },
    {
      "inputs": [
        {
          "internalType": "address",
          "name": "storageContract",
          "type": "address"
        }
      ],
      "name": "setStorageController",
      "outputs": [],
      "stateMutability": "nonpayable",
      "type": "function"
    },
    {
      "inputs": [
        {
          "internalType": "uint32",
          "name": "tokenId",
          "type": "uint32"
        },
        {
          "internalType": "string",
          "name": "json",
          "type": "string"
        }
      ],
      "name": "setTokenURI",
      "outputs": [],
      "stateMutability": "nonpayable",
      "type": "function"
    },
    {
      "inputs": [],
      "name": "storageController",
      "outputs": [
        {
          "internalType": "contract InfinityMintStorage",
          "name": "",
          "type": "address"
        }
      ],
      "stateMutability": "view",
      "type": "function"
    },
    {
      "inputs": [
        {
          "internalType": "bytes4",
          "name": "interfaceId",
          "type": "bytes4"
        }
      ],
      "name": "supportsInterface",
      "outputs": [
        {
          "internalType": "bool",
          "name": "",
          "type": "bool"
        }
      ],
      "stateMutability": "view",
      "type": "function"
    },
    {
      "inputs": [],
      "name": "symbol",
      "outputs": [
        {
          "internalType": "string",
          "name": "",
          "type": "string"
        }
      ],
      "stateMutability": "view",
      "type": "function"
    },
    {
      "inputs": [],
      "name": "tokenPrice",
      "outputs": [
        {
          "internalType": "uint256",
          "name": "",
          "type": "uint256"
        }
      ],
      "stateMutability": "view",
      "type": "function"
    },
    {
      "inputs": [
        {
          "internalType": "uint256",
          "name": "tokenId",
          "type": "uint256"
        }
      ],
      "name": "tokenURI",
      "outputs": [
        {
          "internalType": "string",
          "name": "result",
          "type": "string"
        }
      ],
      "stateMutability": "view",
      "type": "function"
    },
    {
      "inputs": [],
      "name": "totalSupply",
      "outputs": [
        {
          "internalType": "uint256",
          "name": "",
          "type": "uint256"
        }
      ],
      "stateMutability": "view",
      "type": "function"
    },
    {
      "inputs": [
        {
          "internalType": "uint256[]",
          "name": "tokenIds",
          "type": "uint256[]"
        },
        {
          "internalType": "address",
          "name": "destination",
          "type": "address"
        }
      ],
      "name": "transferBatch",
      "outputs": [],
      "stateMutability": "nonpayable",
      "type": "function"
    },
    {
      "inputs": [
        {
          "internalType": "address",
          "name": "_from",
          "type": "address"
        },
        {
          "internalType": "address",
          "name": "_to",
          "type": "address"
        },
        {
          "internalType": "uint256",
          "name": "_tokenId",
          "type": "uint256"
        }
      ],
      "name": "transferFrom",
      "outputs": [],
      "stateMutability": "nonpayable",
      "type": "function"
    },
    {
      "inputs": [
        {
          "internalType": "address",
          "name": "addr",
          "type": "address"
        }
      ],
      "name": "transferOwnership",
      "outputs": [],
      "stateMutability": "nonpayable",
      "type": "function"
    },
    {
      "inputs": [],
      "name": "valuesController",
      "outputs": [
        {
          "internalType": "contract InfinityMintValues",
          "name": "",
          "type": "address"
        }
      ],
      "stateMutability": "view",
      "type": "function"
    },
    {
      "inputs": [],
      "name": "withdraw",
      "outputs": [],
      "stateMutability": "nonpayable",
      "type": "function"
    }
  ],
  "transactionHash": "0x3498e0afd5f04cff83f9cc1ca7e6a1f8c19a84d335031b49c52edebcbc7cd486",
  "args": [
    "AWEdacity🎫Ticket",
    "🎫",
    "0xDEC6264005f8b6ec29C397182837C23e6eCc97b0",
    "0x1239c31F3cf451d3E2b36E104d3747B394a1ee4e",
    "0x1aE71A8097523B3b204f2cd0D1C04D963EdD2ea2",
    "0xFe66F41bEBFc7e57A8A6e5bc85A0BC9667F763da"
  ],
  "numDeployments": 1,
  "solcInputHash": "6e9aa7b6a6e3ea130e840e49f0c21c0a",
  "bytecode": "0x60806040523480156200001157600080fd5b506040516200537e3803806200537e833981016040819052620000349162000276565b8551869086906200004d906005906020850190620000e6565b50805162000063906006906020840190620000e6565b505060078054336001600160a01b031991821681179092556000918252600960205260408220805460ff19166001179055600891909155600a805482166001600160a01b03978816179055600c805482169587169590951790945550600d80548416918516919091179055600b8054909216921691909117905550620003669050565b828054620000f49062000329565b90600052602060002090601f01602090048101928262000118576000855562000163565b82601f106200013357805160ff191683800117855562000163565b8280016001018555821562000163579182015b828111156200016357825182559160200191906001019062000146565b506200017192915062000175565b5090565b5b8082111562000171576000815560010162000176565b634e487b7160e01b600052604160045260246000fd5b600082601f830112620001b457600080fd5b81516001600160401b0380821115620001d157620001d16200018c565b604051601f8301601f19908116603f01168101908282118183101715620001fc57620001fc6200018c565b816040528381526020925086838588010111156200021957600080fd5b600091505b838210156200023d57858201830151818301840152908201906200021e565b838211156200024f5760008385830101525b9695505050505050565b80516001600160a01b03811681146200027157600080fd5b919050565b60008060008060008060c087890312156200029057600080fd5b86516001600160401b0380821115620002a857600080fd5b620002b68a838b01620001a2565b97506020890151915080821115620002cd57600080fd5b50620002dc89828a01620001a2565b955050620002ed6040880162000259565b9350620002fd6060880162000259565b92506200030d6080880162000259565b91506200031d60a0880162000259565b90509295509295509295565b600181811c908216806200033e57607f821691505b602082108114156200036057634e487b7160e01b600052602260045260246000fd5b50919050565b61500880620003766000396000f3fe6080604052600436106101fb5760003560e01c80634c739476116101145780634c7394761461048d5780634f558e79146104ad5780636352211e146104cd5780636bb54df2146104ed57806370a08231146105005780637817d7c0146105365780637ff9b596146105575780638d6900a41461056c57806395d89b411461058c578063a22cb465146105a1578063a2d6b3c5146105c1578063b88d4fde146105e1578063c87b56dd14610601578063c97caf1f14610621578063d15d415014610641578063d5f3948814610661578063d8b964e614610681578063e985e9c5146106b1578063ec2b46c3146106d1578063f107f856146106f1578063f2fde38b14610711578063fe684c0e1461073157600080fd5b80629a9b7b1461020057806301ffc9a71461023e5780630202def11461026e57806304d5c3911461029057806306fdde03146102a3578063081812fc146102c5578063095ea7b3146102f25780630c380cf014610312578063105c48131461033257806310a8c7a91461035257806311ed8c31146103725780631249c58b1461039257806318160ddd1461039a5780631dc9e28a146103bd5780631ff87064146103d057806323b872dd146103f05780632edc48571461041057806339e27d82146104255780633ccfd60b1461043857806342842e0e1461044d578063430c20811461046d575b600080fd5b34801561020c57600080fd5b50600d5461022490600160a01b900463ffffffff1681565b60405163ffffffff90911681526020015b60405180910390f35b34801561024a57600080fd5b5061025e610259366004613e4b565b610751565b6040519015158152602001610235565b34801561027a57600080fd5b5061028e610289366004613f26565b6107a3565b005b61028e61029e366004613fea565b610840565b3480156102af57600080fd5b506102b8610b9a565b604051610235919061405f565b3480156102d157600080fd5b506102e56102e0366004614072565b610c2c565b604051610235919061408b565b3480156102fe57600080fd5b5061028e61030d36600461409f565b610c47565b34801561031e57600080fd5b50600c546102e5906001600160a01b031681565b34801561033e57600080fd5b50600d546102e5906001600160a01b031681565b34801561035e57600080fd5b5061028e61036d3660046140cb565b610d97565b34801561037e57600080fd5b5061028e61038d366004614164565b610e2a565b61028e610e89565b3480156103a657600080fd5b506103af610fab565b604051908152602001610235565b61028e6103cb3660046141f9565b611020565b3480156103dc57600080fd5b5061028e6103eb36600461422d565b611177565b3480156103fc57600080fd5b5061028e61040b36600461427c565b61120c565b34801561041c57600080fd5b5061028e611387565b61028e610433366004613fea565b61177f565b34801561044457600080fd5b5061028e6118b1565b34801561045957600080fd5b5061028e61046836600461427c565b611b73565b34801561047957600080fd5b5061025e61048836600461409f565b611b8e565b34801561049957600080fd5b5061028e6104a8366004614164565b611bed565b3480156104b957600080fd5b5061025e6104c8366004614072565b611c66565b3480156104d957600080fd5b506102e56104e8366004614072565b611c83565b61028e6104fb366004613fea565b611ce8565b34801561050c57600080fd5b506103af61051b366004614164565b6001600160a01b031660009081526004602052604090205490565b34801561054257600080fd5b50600d5461025e90600160c01b900460ff1681565b34801561056357600080fd5b506103af611eac565b34801561057857600080fd5b5061028e6105873660046142cb565b611ef6565b34801561059857600080fd5b506102b8611f58565b3480156105ad57600080fd5b5061028e6105bc3660046142e8565b611f67565b3480156105cd57600080fd5b50600b546102e5906001600160a01b031681565b3480156105ed57600080fd5b5061028e6105fc366004614321565b611fd4565b34801561060d57600080fd5b506102b861061c366004614072565b611fe6565b34801561062d57600080fd5b5061028e61063c36600461447a565b612613565b34801561064d57600080fd5b5061025e61065c366004614164565b6129a7565b34801561066d57600080fd5b506007546102e5906001600160a01b031681565b34801561068d57600080fd5b5061025e61069c366004614164565b60096020526000908152604090205460ff1681565b3480156106bd57600080fd5b5061025e6106cc366004614558565b6129e0565b3480156106dd57600080fd5b50600a546102e5906001600160a01b031681565b3480156106fd57600080fd5b5061028e61070c366004614164565b612a0e565b34801561071d57600080fd5b5061028e61072c366004614164565b612a87565b34801561073d57600080fd5b5061028e61074c3660046142e8565b612b2d565b60006001600160e01b031982166380ac58cd60e01b148061078257506001600160e01b03198216635b5e139f60e01b145b8061079d57506301ffc9a760e01b6001600160e01b03198316145b92915050565b60208251106108035760405162461bcd60e51b815260206004820152602160248201527f706c656173652073706c697420757020696e746f206368756e6b73206f6620336044820152601960f91b60648201526084015b60405180910390fd5b60005b825181101561083b57610833338385848151811061082657610826614586565b6020026020010151611b73565b600101610806565b505050565b60016008600082825461085391906145b2565b9091555050600854600a54604051636c51371d60e11b815263ffffffff841660048201526000916001600160a01b03169063d8a26e3a90602401600060405180830381865afa1580156108aa573d6000803e3d6000fd5b505050506040513d6000823e601f3d908101601f191682016040526108d2919081019061476c565b600a54604051631f7c4d3760e01b81529192506001600160a01b031690631f7c4d37906109069086906001906004016148b1565b602060405180830381865afa158015610923573d6000803e3d6000fd5b505050506040513d601f19601f8201168201806040525081019061094791906148c7565b61098e5760405162461bcd60e51b81526020600482015260186024820152771cdd1a58dad95c8818dbdb9d1c9858dd081b9bdd081cd95d60421b60448201526064016107fa565b8061010001516001815181106109a6576109a6614586565b60200260200101516001600160a01b03166109be3390565b6001600160a01b031614610a375760405162461bcd60e51b815260206004820152603a60248201527f53656e646572206d7573742062652074686520737469636b657220636f6e747260448201527930b1ba1030ba3a30b1b432b2103a37903a3434b9903a37b5b2b760311b60648201526084016107fa565b341580610a445750606434115b15610b1e57600d5460408051635b6bf64160e01b815290516001600160a01b03909216916304caf36a9134918491635b6bf6419160048083019260209291908290030181865afa158015610a9c573d6000803e3d6000fd5b505050506040513d601f19601f82011682018060405250810190610ac091906148e4565b6040516001600160e01b031960e085901b168152600481019290925260ff166024820152604401600060405180830381600087803b158015610b0157600080fd5b505af1158015610b15573d6000803e3d6000fd5b50505050610b74565b60405162461bcd60e51b815260206004820152602560248201527f76616c756520676976656e206d757374206265206f766572203130302c206f72604482015264207a65726f60d81b60648201526084016107fa565b506008548114610b965760405162461bcd60e51b81526004016107fa90614907565b5050565b606060058054610ba990614929565b80601f0160208091040260200160405190810160405280929190818152602001828054610bd590614929565b8015610c225780601f10610bf757610100808354040283529160200191610c22565b820191906000526020600020905b815481529060010190602001808311610c0557829003601f168201915b5050505050905090565b6000908152600260205260409020546001600160a01b031690565b6000610c5282611c83565b9050806001600160a01b0316836001600160a01b03161415610cad5760405162461bcd60e51b815260206004820152601460248201527331b0b73737ba1030b8383937bb329037bbb732b960611b60448201526064016107fa565b336001600160a01b0382161480610cc95750610cc981336129e0565b610d3b5760405162461bcd60e51b815260206004820152603d60248201527f4552433732313a20617070726f76652063616c6c6572206973206e6f7420746f60448201527f6b656e206f776e6572206f7220617070726f76656420666f7220616c6c00000060648201526084016107fa565b60008281526002602052604080822080546001600160a01b0319166001600160a01b0387811691821790925591518593918516917f8c5be1e5ebec7d5bd14f71427d1e84f3dd0314c0f7b2291e5b200ac8c7c3b92591a4505050565b6007546001600160a01b03163314610dc15760405162461bcd60e51b81526004016107fa90614964565b8051610dcc57600080fd5b60005b8151811015610b9657600160096000848481518110610df057610df0614586565b6020908102919091018101516001600160a01b03168252810191909152604001600020805460ff1916911515919091179055600101610dcf565b6007546001600160a01b03163314610e545760405162461bcd60e51b81526004016107fa90614964565b6001600160a01b038116610e6757600080fd5b600d80546001600160a01b0319166001600160a01b0392909216919091179055565b600160086000828254610e9c91906145b2565b9091555050600854600c546040516206259160e71b81526001600160a01b0390911690630312c88090610ed19060040161498a565b602060405180830381865afa158015610eee573d6000803e3d6000fd5b505050506040513d601f19601f82011682018060405250810190610f1291906148c7565b15610f6f5760405162461bcd60e51b815260206004820152602760248201527f6d757374206d696e74207769746820627974654d696e7420696e7374656164206044820152661bd9881b5a5b9d60ca1b60648201526084016107fa565b610f8760405180602001604052806000815250612c08565b6008548114610fa85760405162461bcd60e51b81526004016107fa90614907565b50565b600c5460405163e7b6dac960e01b81526000916001600160a01b03169063e7b6dac990610fda906004016149ac565b602060405180830381865afa158015610ff7573d6000803e3d6000fd5b505050506040513d601f19601f8201168201806040525081019061101b91906149cf565b905090565b60016008600082825461103391906145b2565b9091555050600854600c546040516206259160e71b81526001600160a01b0390911690630312c880906110689060040161498a565b602060405180830381865afa158015611085573d6000803e3d6000fd5b505050506040513d601f19601f820116820180604052508101906110a991906148c7565b6111055760405162461bcd60e51b815260206004820152602760248201527f6d757374206d696e742077697468206d696e7420696e7374656164206f6620626044820152661e5d19535a5b9d60ca1b60648201526084016107fa565b815161114d5760405162461bcd60e51b81526020600482015260176024820152766c656e677468206f66206279746573206973207a65726f60481b60448201526064016107fa565b61115682612c08565b6008548114610b965760405162461bcd60e51b81526004016107fa90614907565b611187338363ffffffff16611b8e565b6111e65760405162461bcd60e51b815260206004820152602a60248201527f6973206e6f74204f776e65722c20617070726f766564206f7220617070726f76604482015269195908199bdc88185b1b60b21b60648201526084016107fa565b63ffffffff82166000908152600160209081526040909120825161083b92840190613d9c565b6112163382611b8e565b61125a5760405162461bcd60e51b81526020600482015260156024820152743737ba1030b8383937bb32b21037b91037bbb732b960591b60448201526064016107fa565b6001600160a01b0383166112aa5760405162461bcd60e51b815260206004820152601760248201527673656e64696e6720746f206e756c6c206164647265737360481b60448201526064016107fa565b6112b5838383612d40565b600081815260026020908152604080832080546001600160a01b03191690556001600160a01b0386168352600490915281208054600192906112f89084906149e8565b90915550506001600160a01b03821660009081526004602052604081208054600192906113269084906145b2565b909155505060008181526020819052604080822080546001600160a01b0319166001600160a01b0386811691821790925591518493918716917fddf252ad1be2c89b69c2b068fc378daa952ba7f163c4a11628f55a4df523b3ef91a4505050565b6113926000806132ae565b611406576040805162461bcd60e51b81526020600482015260248101919091527f6661696c6564206d696e7420636865636b3a206d696e7473206172652064697360448201527f61626c65642c206d696e7473206172652061742061206d617820737570706c7960648201526084016107fa565b600c5460405163e7b6dac960e01b81526000916001600160a01b03169063e7b6dac990611435906004016149ff565b602060405180830381865afa158015611452573d6000803e3d6000fd5b505050506040513d601f19601f8201168201806040525081019061147691906149cf565b116114bb5760405162461bcd60e51b81526020600482015260156024820152741c1c995d9a595ddcc8185c9948191a5cd8589b1959605a1b60448201526064016107fa565b600a546001600160a01b031663e5725968336040518263ffffffff1660e01b81526004016114e9919061408b565b602060405180830381865afa158015611506573d6000803e3d6000fd5b505050506040513d601f19601f8201168201806040525081019061152a91906149cf565b42116115995760405162461bcd60e51b815260206004820152603860248201527f706c65617365206d696e74207072657669657773206f72207761697420756e746044820152770696c207072657669657720636f756e7465722069732075760441b60648201526084016107fa565b600b54600d5460408051631a5dad5160e01b8152600160a01b90920463ffffffff166004830152336024830152516000926001600160a01b031691631a5dad51916044808301926020929190829003018187875af11580156115ff573d6000803e3d6000fd5b505050506040513d601f19601f8201168201806040525081019061162391906149cf565b600c5460405163e7b6dac960e01b815260206004820152601660248201527570726576696577436f6f6c646f776e5365636f6e647360501b60448201529192506000916001600160a01b039091169063e7b6dac990606401602060405180830381865afa158015611698573d6000803e3d6000fd5b505050506040513d601f19601f820116820180604052508101906116bc91906149cf565b9050806116c75750603c5b600a546001600160a01b031663a22d583a336116e384426145b2565b6040518363ffffffff1660e01b8152600401611700929190614a25565b600060405180830381600087803b15801561171a57600080fd5b505af115801561172e573d6000803e3d6000fd5b505050506117393390565b6001600160a01b03167f5714c3f2df77e79db463ef18f304b9c2c6b2502ed4d63b7cfdd9950416c926998360405161177391815260200190565b60405180910390a25050565b60016008600082825461179291906145b2565b9091555050600854346117c88160096000335b6001600160a01b0316815260208101919091526040016000205460ff16156132ae565b61180f5760405162461bcd60e51b81526020600482015260186024820152773330b4b632b21036b4b73a103b32b934b334b1b0ba34b7b760411b60448201526064016107fa565b600b54600d546040805163137655b160e31b815263ffffffff8781166004830152600160a01b909304909216602483015233604483015251610b74926001600160a01b031691639bb2ad88916064808301926000929190829003018183875af1158015611880573d6000803e3d6000fd5b505050506040513d6000823e601f3d908101601f191682016040526118a8919081019061476c565b336001846133ef565b6001600860008282546118c491906145b2565b9091555050600854600d546040516354fe9fd760e01b81526000916001600160a01b0316906354fe9fd7906118fd90339060040161408b565b602060405180830381865afa15801561191a573d6000803e3d6000fd5b505050506040513d601f19601f8201168201806040525081019061193e91906149cf565b9050600081116119895760405162461bcd60e51b81526020600482015260166024820152756e6f2062616c616e636520746f20776974686472617760501b60448201526064016107fa565b600061199582476149e8565b10156119df5760405162461bcd60e51b815260206004820152601960248201527863616e6e6f74206166666f726420746f20776974686472617760381b60448201526064016107fa565b600d546001600160a01b031663e8953af2336040518263ffffffff1660e01b8152600401611a0d919061408b565b6020604051808303816000875af1158015611a2c573d6000803e3d6000fd5b505050506040513d601f19601f82011682018060405250810190611a5091906149cf565b905060008111611ab85760405162461bcd60e51b815260206004820152602d60248201527f76616c75652072657475726e65642066726f6d20726f79616c747920636f6e7460448201526c1c9bdb1b195c881a5cc8189859609a1b60648201526084016107fa565b604051600090339083908381818185875af1925050503d8060008114611afa576040519150601f19603f3d011682016040523d82523d6000602084013e611aff565b606091505b5050905080611b505760405162461bcd60e51b815260206004820152601d60248201527f646964206e6f74207472616e73666572207375636365737366756c6c7900000060448201526064016107fa565b50506008548114610fa85760405162461bcd60e51b81526004016107fa90614907565b61083b8383836040518060200160405280600081525061382b565b600080611b9a83611c83565b9050806001600160a01b0316846001600160a01b03161480611bc15750611bc181856129e0565b80611be55750836001600160a01b0316611bda84610c2c565b6001600160a01b0316145b949350505050565b6007546001600160a01b0316331480611c1557503360009081526009602052604090205460ff165b611c315760405162461bcd60e51b81526004016107fa90614a3e565b6001600160a01b038116611c4457600080fd5b600a80546001600160a01b0319166001600160a01b0392909216919091179055565b6000908152602081905260409020546001600160a01b0316151590565b6000611c8e82611c66565b611ccc5760405162461bcd60e51b815260206004820152600f60248201526e1a5b9d985b1a59081d1bdad95b9259608a1b60448201526064016107fa565b506000908152602081905260409020546001600160a01b031690565b600160086000828254611cfb91906145b2565b90915550506008546007546001600160a01b0316331480611d2b57503360009081526009602052604090205460ff165b611d475760405162461bcd60e51b81526004016107fa90614a3e565b600d60009054906101000a90046001600160a01b03166001600160a01b0316635b6bf6416040518163ffffffff1660e01b8152600401602060405180830381865afa158015611d9a573d6000803e3d6000fd5b505050506040513d601f19601f82011682018060405250810190611dbe91906148e4565b60ff168263ffffffff161415611e225760405162461bcd60e51b8152602060048201526024808201527f63616e2774206465706f73697420737469636b657220726f79616c74696573206044820152636865726560e01b60648201526084016107fa565b600d5460405163026579b560e11b815234600482015263ffffffff841660248201526001600160a01b03909116906304caf36a90604401600060405180830381600087803b158015611e7357600080fd5b505af1158015611e87573d6000803e3d6000fd5b505050506008548114610b965760405162461bcd60e51b81526004016107fa90614907565b600d5460408051633ffcdacb60e11b815290516000926001600160a01b031691637ff9b5969160048083019260209291908290030181865afa158015610ff7573d6000803e3d6000fd5b6007546001600160a01b0316331480611f1e57503360009081526009602052604090205460ff165b611f3a5760405162461bcd60e51b81526004016107fa90614a3e565b600d8054911515600160c01b0260ff60c01b19909216919091179055565b606060068054610ba990614929565b3360008181526003602090815260408083206001600160a01b03871680855290835292819020805460ff191686151590811790915590519081529192917f17307eab39ab6107e8899845ad3d59bd9653f200f220920489ca2b5937696c3191015b60405180910390a35050565b611fe08484848461382b565b50505050565b600d54606090600160a01b900463ffffffff1682106120475760405162461bcd60e51b815260206004820152601f60248201527f746f6b656e55524920666f72206e6f6e2d6578697374656e7420746f6b656e0060448201526064016107fa565b6040518060a0016040528060628152602001614f7160629139600a546040805163712a908d60e01b81523060048201526024810191909152600f60448201526e64656661756c74546f6b656e55524960881b60648201529192506000916001600160a01b039091169063712a908d90608401600060405180830381865afa1580156120d6573d6000803e3d6000fd5b505050506040513d6000823e601f3d908101601f191682016040526120fe9190810190614a64565b9050805160001461210d578091505b600061211884611c83565b60008581526001602052604081208054929350909161213690614929565b80601f016020809104026020016040519081016040528092919081815260200182805461216290614929565b80156121af5780601f10612184576101008083540402835291602001916121af565b820191906000526020600020905b81548152906001019060200180831161219257829003601f168201915b5050600a5460408051636c17fd7960e01b815263ffffffff8c1660048201526024810191909152600d60448201526c666f726365546f6b656e55524960981b60648201529495506001600160a01b031693636c17fd79935060840191506122139050565b602060405180830381865afa158015612230573d6000803e3d6000fd5b505050506040513d601f19601f8201168201806040525081019061225491906148c7565b80156122605750805115155b1561226d5780935061260b565b600a54604051633f08e8e360e11b81526001600160a01b0390911690637e11d1c69061229d908590600401614a98565b602060405180830381865afa1580156122ba573d6000803e3d6000fd5b505050506040513d601f19601f820116820180604052508101906122de91906148c7565b806123555750600a54604051633f08e8e360e11b81526001600160a01b0390911690637e11d1c690612314903090600401614a98565b602060405180830381865afa158015612331573d6000803e3d6000fd5b505050506040513d601f19601f8201168201806040525081019061235591906148c7565b1561260057600a54604051633f08e8e360e11b81526000916001600160a01b031690637e11d1c69061238b908690600401614a98565b602060405180830381865afa1580156123a8573d6000803e3d6000fd5b505050506040513d601f19601f820116820180604052508101906123cc91906148c7565b6123d657306123d8565b825b600a5460405163712a908d60e01b81529192506000916001600160a01b039091169063712a908d906124399085906004016001600160a01b03919091168152604060208201819052600490820152631c9bdbdd60e21b606082015260800190565b600060405180830381865afa158015612456573d6000803e3d6000fd5b505050506040513d6000823e601f3d908101601f1916820160405261247e9190810190614a64565b600a80546040805163712a908d60e01b81526001600160a01b03878116600483015260248201929092526044810193909352690e4dedee8a6eaccccd2f60b31b6064840152929350600092169063712a908d90608401600060405180830381865afa1580156124f1573d6000803e3d6000fd5b505050506040513d6000823e601f3d908101601f191682016040526125199190810190614a64565b9050805160001480156125b85750600c546040516206259160e71b81526020600482015260136024820152720e4cadadeecca88caccc2ead8e8a6eaccccd2f606b1b60448201526001600160a01b0390911690630312c88090606401602060405180830381865afa158015612592573d6000803e3d6000fd5b505050506040513d601f19601f820116820180604052508101906125b691906148c7565b155b156125db5750604080518082019091526005815264173539b7b760d91b60208201525b8151156125f8576125f5826125ef8a61389b565b836139c3565b96505b50505061260b565b80511561260b578093505b505050919050565b6007546001600160a01b031633148061263b57503360009081526009602052604090205460ff165b6126575760405162461bcd60e51b81526004016107fa90614a3e565b600c5460405163e7b6dac960e01b81526001600160a01b039091169063e7b6dac990612685906004016149ac565b602060405180830381865afa1580156126a2573d6000803e3d6000fd5b505050506040513d601f19601f820116820180604052508101906126c691906149cf565b600d54600160a01b900463ffffffff1614156127405760405162461bcd60e51b815260206004820152603360248201527f6d617820737570706c7920686173206265656e2072656163686564207261697360448201527265206974206265666f7265206d696e74696e6760681b60648201526084016107fa565b600c546040516206259160e71b815260206004820152600f60248201526e696e6372656d656e74616c4d6f646560881b60448201526001600160a01b0390911690630312c88090606401602060405180830381865afa1580156127a7573d6000803e3d6000fd5b505050506040513d601f19601f820116820180604052508101906127cb91906148c7565b806128585750600c546040516206259160e71b815260206004820152600b60248201526a6d6174636865644d6f646560a81b60448201526001600160a01b0390911690630312c88090606401602060405180830381865afa158015612834573d6000803e3d6000fd5b505050506040513d601f19601f8201168201806040525081019061285891906148c7565b1561294557600b60009054906101000a90046001600160a01b03166001600160a01b031663573f86006040518163ffffffff1660e01b8152600401602060405180830381865afa1580156128b0573d6000803e3d6000fd5b505050506040513d601f19601f820116820180604052508101906128d49190614acd565b6001600160a01b0316638a25ad246128ed886001614aea565b6040516001600160e01b031960e084901b16815263ffffffff919091166004820152602401600060405180830381600087803b15801561292c57600080fd5b505af1158015612940573d6000803e3d6000fd5b505050505b600d5461299e9061299590600160a01b900463ffffffff16888886868a8a8f600060405190808252806020026020018201604052801561298f578160200160208202803683370190505b506139fc565b886000346133ef565b50505050505050565b6007546000906001600160a01b038381169116148061079d5750506001600160a01b031660009081526009602052604090205460ff1690565b6001600160a01b03918216600090815260036020908152604080832093909416825291909152205460ff1690565b6007546001600160a01b0316331480612a3657503360009081526009602052604090205460ff165b612a525760405162461bcd60e51b81526004016107fa90614a3e565b6001600160a01b038116612a6557600080fd5b600b80546001600160a01b0319166001600160a01b0392909216919091179055565b6007546001600160a01b03163314612ab15760405162461bcd60e51b81526004016107fa90614964565b600780546001600160a01b03908116600090815260096020526040808220805460ff1990811690915584546001600160a01b03191693861693841790945582825280822080549094166001179093559151909133917f93091b3f3cd424efabc74e181f3799f3476ed758412561ed3b29515c51f567529190a350565b6007546001600160a01b03163314612b575760405162461bcd60e51b81526004016107fa90614964565b6007546001600160a01b0383811691161415612bae5760405162461bcd60e51b815260206004820152601660248201527531b0b73737ba1036b7b234b33c903232b83637bcb2b960511b60448201526064016107fa565b6001600160a01b038216600081815260096020908152604091829020805460ff1916851515908117909155915191825233917ff38de818d000d07d091732dd783c6855722d7bc1934d92b7635133289d3416959101611fc8565b612c163460096000336117a5565b612cab5760405162461bcd60e51b815260206004820152605a60248201527f6661696c6564206d696e7420636865636b3a206d696e7473206172652064697360448201527f61626c65642c206d696e7473206172652061742061206d617820737570706c79606482015279040dee440f2deea40c8d2c840dcdee840e0c2f240cadcdeeaced60331b608482015260a4016107fa565b600b54600d54604051631bc8bf9360e01b8152610fa8926001600160a01b031691631bc8bf9391612cf091600160a01b900463ffffffff169033908790600401614b12565b6000604051808303816000875af1158015612d0f573d6000803e3d6000fd5b505050506040513d6000823e601f3d908101601f19168201604052612d37919081019061476c565b336000346133ef565b600a5460408051636c17fd7960e01b815263ffffffff84166004820152602481019190915260066044820152651b1bd8dad95960d21b60648201526001600160a01b0390911690636c17fd7990608401602060405180830381865afa158015612dad573d6000803e3d6000fd5b505050506040513d601f19601f82011682018060405250810190612dd191906148c7565b151560011415612e5b5760405162461bcd60e51b815260206004820152604960248201527f5468697320746f6b656e206973206c6f636b656420616e64206e65656473207460448201527f6f20626520756e6c6f636b6564206265666f72652069742063616e20626520746064820152681c985b9cd9995c995960ba1b608482015260a4016107fa565b600c546040516206259160e71b8152602060048201526015602482015274656e61626c655472616e73666572556e6c696e6b7360581b60448201526001600160a01b0390911690630312c88090606401602060405180830381865afa158015612ec8573d6000803e3d6000fd5b505050506040513d601f19601f82011682018060405250810190612eec91906148c7565b1561310557600a54604051630368390b60e31b81526001600160a01b0390911690631b41c85890612f249084906000906004016148b1565b602060405180830381865afa158015612f41573d6000803e3d6000fd5b505050506040513d601f19601f82011682018060405250810190612f6591906148c7565b15612ffb57600a54604051638180a71760e01b815263ffffffff8316600482015260606024820152600f60648201526e063616e556e6c696e6b496e6465783608c1b6084820152600160448201526001600160a01b0390911690638180a7179060a401600060405180830381600087803b158015612fe257600080fd5b505af1158015612ff6573d6000803e3d6000fd5b505050505b600a54604051630368390b60e31b81526001600160a01b0390911690631b41c8589061302e9084906000906004016148b1565b602060405180830381865afa15801561304b573d6000803e3d6000fd5b505050506040513d601f19601f8201168201806040525081019061306f91906148c7565b1561310557600a54604051638180a71760e01b815263ffffffff8316600482015260606024820152600f60648201526e63616e556e6c696e6b496e6465783160881b6084820152600160448201526001600160a01b0390911690638180a7179060a401600060405180830381600087803b1580156130ec57600080fd5b505af1158015613100573d6000803e3d6000fd5b505050505b600a546040516320025d2160e21b81526001600160a01b03909116906380097484906131379085908590600401614b42565b600060405180830381600087803b15801561315157600080fd5b505af1158015613165573d6000803e3d6000fd5b5050600c546040516206259160e71b81526001600160a01b039091169250630312c880915061319690600401614b61565b602060405180830381865afa1580156131b3573d6000803e3d6000fd5b505050506040513d601f19601f820116820180604052508101906131d791906148c7565b61083b57600a54604051634fe61faf60e11b81526001600160a01b0390911690639fcc3f5e9061320d9085908590600401614b42565b600060405180830381600087803b15801561322757600080fd5b505af115801561323b573d6000803e3d6000fd5b505050506001600160a01b0383161561083b57600a54604051634f2609c760e11b81526001600160a01b0390911690639e4c138e906132809086908590600401614b42565b600060405180830381600087803b15801561329a57600080fd5b505af115801561299e573d6000803e3d6000fd5b600d54600090600160c01b900460ff166132ca5750600061079d565b600c5460405163e7b6dac960e01b81526001600160a01b039091169063e7b6dac9906132f8906004016149ac565b602060405180830381865afa158015613315573d6000803e3d6000fd5b505050506040513d601f19601f8201168201806040525081019061333991906149cf565b600d54600160a01b900463ffffffff16106133565750600061079d565b8180156133d95750600d60009054906101000a90046001600160a01b03166001600160a01b0316637ff9b5966040518163ffffffff1660e01b8152600401602060405180830381865afa1580156133b1573d6000803e3d6000fd5b505050506040513d601f19601f820116820180604052508101906133d591906149cf565b8314155b156133e65750600061079d565b50600192915050565b61341683600d60149054906101000a900463ffffffff1663ffffffff168660a00151613ac2565b600a54600d5460405163c28cf06160e01b81526001600160a01b039092169163c28cf0619161345891600160a01b90910463ffffffff16908890600401614c61565b600060405180830381600087803b15801561347257600080fd5b505af1158015613486573d6000803e3d6000fd5b5050600c546040516206259160e71b81526001600160a01b039091169250630312c88091506134b790600401614b61565b602060405180830381865afa1580156134d4573d6000803e3d6000fd5b505050506040513d601f19601f820116820180604052508101906134f891906148c7565b61357057600a54600d54604051634fe61faf60e11b81526001600160a01b0390921691639fcc3f5e9161353d918791600160a01b900463ffffffff1690600401614b42565b600060405180830381600087803b15801561355757600080fd5b505af115801561356b573d6000803e3d6000fd5b505050505b600a54600c5460405163e7b6dac960e01b81526001600160a01b0392831692638ff58aa692879291169063e7b6dac9906135ac906004016149ff565b602060405180830381865afa1580156135c9573d6000803e3d6000fd5b505050506040513d601f19601f820116820180604052508101906135ed91906149cf565b6040518363ffffffff1660e01b815260040161360a929190614a25565b600060405180830381600087803b15801561362457600080fd5b505af1158015613638573d6000803e3d6000fd5b5050600d5460408051631d4e010f60e11b815290516001600160a01b0390921693506304caf36a925084918491633a9c021e9160048083019260209291908290030181865afa15801561368f573d6000803e3d6000fd5b505050506040513d601f19601f820116820180604052508101906136b391906148e4565b6040516001600160e01b031960e085901b168152600481019290925260ff166024820152604401600060405180830381600087803b1580156136f457600080fd5b505af1158015613708573d6000803e3d6000fd5b50505050811561379e57600d80546001600160a01b038516917f8f2c63d2fb7a6762d60b5c413fcf4212bc46912b94c8b65172d780f1a2515a4491600160a01b900463ffffffff1690601461375c83614d64565b91906101000a81548163ffffffff021916908363ffffffff16021790555061378387613be3565b604051613791929190614d88565b60405180910390a2611fe0565b600d80546001600160a01b038516917fef35cf177b2baefe03d86d3f735f32215ea0d2fb2f0548bc5f45ea6950e6889491600160a01b900463ffffffff169060146137e883614d64565b91906101000a81548163ffffffff021916908363ffffffff16021790555061380f87613be3565b60405161381d929190614d88565b60405180910390a250505050565b61383684848461120c565b6138433385858585613c5a565b611fe05760405162461bcd60e51b815260206004820152602360248201527f45524337323120526563656976657220436f6e6669726d6174696f6e2049732060448201526210985960ea1b60648201526084016107fa565b6060816138bf5750506040805180820190915260018152600360fc1b602082015290565b8160005b81156138e957806138d381614da7565b91506138e29050600a83614dc2565b91506138c3565b6000816001600160401b0381111561390357613903613e6f565b6040519080825280601f01601f19166020018201604052801561392d576020820181803683370190505b509050815b85156139ba576139436001826149e8565b90506000613952600a88614dc2565b61395d90600a614de4565b61396790886149e8565b613972906030614e03565b905060008160f81b90508084848151811061398f5761398f614586565b60200101906001600160f81b031916908160001a9053506139b1600a89614dc2565b97505050613932565b50949350505050565b60608383836040516020016139da93929190614e28565b604051602081830303815290604052806020019051810190611be59190614a64565b613a66604051806101200160405280600063ffffffff168152602001600063ffffffff168152602001600063ffffffff16815260200160006001600160a01b0316815260200160608152602001606081526020016060815260200160608152602001606081525090565b50604080516101208101825263ffffffff998a168152978916602089015298909716978601979097526001600160a01b039096166060850152608084015260a083019490945260c082015260e081019290925261010082015290565b6001600160a01b038316613b035760405162461bcd60e51b81526020600482015260086024820152670c1e0c081b5a5b9d60c21b60448201526064016107fa565b613b0c82611c66565b15613b4a5760405162461bcd60e51b815260206004820152600e60248201526d185b1c9958591e481b5a5b9d195960921b60448201526064016107fa565b6001600160a01b0383166000908152600460205260408120805460019290613b739084906145b2565b909155505060008281526020819052604080822080546001600160a01b0319166001600160a01b03871690811790915590518492907fddf252ad1be2c89b69c2b068fc378daa952ba7f163c4a11628f55a4df523b3ef908290a4613bda3330858585613c5a565b61083b57600080fd5b606081600001518260200151836040015184606001518560800151604051602001613c0e9190614e6b565b60408051601f198184030181529082905260a088015160c089015160e08a01516101008b0151613c449998979695602001614e7e565b6040516020818303038152906040529050919050565b6000833b613c6a57506001613d93565b604051630a85bd0160e11b81526001600160a01b0385169063150b7a0290613c9c908990899088908890600401614f20565b6020604051808303816000875af1925050508015613cd7575060408051601f3d908101601f19168201909252613cd491810190614f53565b60015b613d7d573d808015613d05576040519150601f19603f3d011682016040523d82523d6000602084013e613d0a565b606091505b508051613d755760405162461bcd60e51b815260206004820152603360248201527f5468697320636f6e747261637420646f6573206e6f7420696d706c656d656e746044820152721030b71024a2a9219b9918a932b1b2b4bb32b960691b60648201526084016107fa565b805181602001fd5b6001600160e01b031916630a85bd0160e11b1490505b95945050505050565b828054613da890614929565b90600052602060002090601f016020900481019282613dca5760008555613e10565b82601f10613de357805160ff1916838001178555613e10565b82800160010185558215613e10579182015b82811115613e10578251825591602001919060010190613df5565b50613e1c929150613e20565b5090565b5b80821115613e1c5760008155600101613e21565b6001600160e01b031981168114610fa857600080fd5b600060208284031215613e5d57600080fd5b8135613e6881613e35565b9392505050565b634e487b7160e01b600052604160045260246000fd5b60405161012081016001600160401b0381118282101715613ea857613ea8613e6f565b60405290565b604051601f8201601f191681016001600160401b0381118282101715613ed657613ed6613e6f565b604052919050565b60006001600160401b03821115613ef757613ef7613e6f565b5060051b60200190565b6001600160a01b0381168114610fa857600080fd5b8035613f2181613f01565b919050565b60008060408385031215613f3957600080fd5b82356001600160401b03811115613f4f57600080fd5b8301601f81018513613f6057600080fd5b80356020613f75613f7083613ede565b613eae565b82815260059290921b83018101918181019088841115613f9457600080fd5b938201935b83851015613fb257843582529382019390820190613f99565b9550613fc19050868201613f16565b93505050509250929050565b63ffffffff81168114610fa857600080fd5b8035613f2181613fcd565b600060208284031215613ffc57600080fd5b8135613e6881613fcd565b60005b8381101561402257818101518382015260200161400a565b83811115611fe05750506000910152565b6000815180845261404b816020860160208601614007565b601f01601f19169290920160200192915050565b602081526000613e686020830184614033565b60006020828403121561408457600080fd5b5035919050565b6001600160a01b0391909116815260200190565b600080604083850312156140b257600080fd5b82356140bd81613f01565b946020939093013593505050565b600060208083850312156140de57600080fd5b82356001600160401b038111156140f457600080fd5b8301601f8101851361410557600080fd5b8035614113613f7082613ede565b81815260059190911b8201830190838101908783111561413257600080fd5b928401925b8284101561415957833561414a81613f01565b82529284019290840190614137565b979650505050505050565b60006020828403121561417657600080fd5b8135613e6881613f01565b60006001600160401b0382111561419a5761419a613e6f565b50601f01601f191660200190565b600082601f8301126141b957600080fd5b81356141c7613f7082614181565b8181528460208386010111156141dc57600080fd5b816020850160208301376000918101602001919091529392505050565b60006020828403121561420b57600080fd5b81356001600160401b0381111561422157600080fd5b611be5848285016141a8565b6000806040838503121561424057600080fd5b823561424b81613fcd565b915060208301356001600160401b0381111561426657600080fd5b614272858286016141a8565b9150509250929050565b60008060006060848603121561429157600080fd5b833561429c81613f01565b925060208401356142ac81613f01565b929592945050506040919091013590565b8015158114610fa857600080fd5b6000602082840312156142dd57600080fd5b8135613e68816142bd565b600080604083850312156142fb57600080fd5b823561430681613f01565b91506020830135614316816142bd565b809150509250929050565b6000806000806080858703121561433757600080fd5b843561434281613f01565b9350602085013561435281613f01565b92506040850135915060608501356001600160401b0381111561437457600080fd5b614380878288016141a8565b91505092959194509250565b600082601f83011261439d57600080fd5b813560206143ad613f7083613ede565b82815260059290921b840181019181810190868411156143cc57600080fd5b8286015b848110156143f05780356143e381613fcd565b83529183019183016143d0565b509695505050505050565b600082601f83011261440c57600080fd5b8135602061441c613f7083613ede565b82815260059290921b8401810191818101908684111561443b57600080fd5b8286015b848110156143f05780356001600160401b0381111561445e5760008081fd5b61446c8986838b01016141a8565b84525091830191830161443f565b600080600080600080600060e0888a03121561449557600080fd5b61449e88613f16565b96506144ac60208901613fdf565b95506144ba60408901613fdf565b945060608801356001600160401b03808211156144d657600080fd5b6144e28b838c0161438c565b955060808a01359150808211156144f857600080fd5b6145048b838c016141a8565b945060a08a013591508082111561451a57600080fd5b6145268b838c0161438c565b935060c08a013591508082111561453c57600080fd5b506145498a828b016143fb565b91505092959891949750929550565b6000806040838503121561456b57600080fd5b823561457681613f01565b9150602083013561431681613f01565b634e487b7160e01b600052603260045260246000fd5b634e487b7160e01b600052601160045260246000fd5b600082198211156145c5576145c561459c565b500190565b8051613f2181613fcd565b8051613f2181613f01565b600082601f8301126145f157600080fd5b81516020614601613f7083613ede565b82815260059290921b8401810191818101908684111561462057600080fd5b8286015b848110156143f057805161463781613fcd565b8352918301918301614624565b600082601f83011261465557600080fd5b8151614663613f7082614181565b81815284602083860101111561467857600080fd5b611be5826020830160208701614007565b600082601f83011261469a57600080fd5b815160206146aa613f7083613ede565b82815260059290921b840181019181810190868411156146c957600080fd5b8286015b848110156143f05780516001600160401b038111156146ec5760008081fd5b6146fa8986838b0101614644565b8452509183019183016146cd565b600082601f83011261471957600080fd5b81516020614729613f7083613ede565b82815260059290921b8401810191818101908684111561474857600080fd5b8286015b848110156143f057805161475f81613f01565b835291830191830161474c565b60006020828403121561477e57600080fd5b81516001600160401b038082111561479557600080fd5b9083019061012082860312156147aa57600080fd5b6147b2613e85565b6147bb836145ca565b81526147c9602084016145ca565b60208201526147da604084016145ca565b60408201526147eb606084016145d5565b606082015260808301518281111561480257600080fd5b61480e878286016145e0565b60808301525060a08301518281111561482657600080fd5b61483287828601614644565b60a08301525060c08301518281111561484a57600080fd5b614856878286016145e0565b60c08301525060e08301518281111561486e57600080fd5b61487a87828601614689565b60e083015250610100808401518381111561489457600080fd5b6148a088828701614708565b918301919091525095945050505050565b63ffffffff929092168252602082015260400190565b6000602082840312156148d957600080fd5b8151613e68816142bd565b6000602082840312156148f657600080fd5b815160ff81168114613e6857600080fd5b60208082526008908201526772652d656e74727960c01b604082015260600190565b600181811c9082168061493d57607f821691505b6020821081141561495e57634e487b7160e01b600052602260045260246000fd5b50919050565b6020808252600c908201526b3737ba103232b83637bcb2b960a11b604082015260600190565b602080825260089082015267189e5d19535a5b9d60c21b604082015260600190565b6020808252600990820152686d6178537570706c7960b81b604082015260600190565b6000602082840312156149e157600080fd5b5051919050565b6000828210156149fa576149fa61459c565b500390565b6020808252600c908201526b1c1c995d9a595dd0dbdd5b9d60a21b604082015260600190565b6001600160a01b03929092168252602082015260400190565b6020808252600c908201526b1b9bdd08185c1c1c9bdd995960a21b604082015260600190565b600060208284031215614a7657600080fd5b81516001600160401b03811115614a8c57600080fd5b611be584828501614644565b6001600160a01b03919091168152604060208201819052600990820152681d5cda5b99d49bdbdd60ba1b606082015260800190565b600060208284031215614adf57600080fd5b8151613e6881613f01565b600063ffffffff808316818516808303821115614b0957614b0961459c565b01949350505050565b63ffffffff841681526001600160a01b0383166020820152606060408201819052600090613d9390830184614033565b6001600160a01b0392909216825263ffffffff16602082015260400190565b60208082526017908201527664697361626c6552656769737465726564546f6b656e7360481b604082015260600190565b600081518084526020808501945080840160005b83811015614bc857815163ffffffff1687529582019590820190600101614ba6565b509495945050505050565b600081518084526020808501808196508360051b8101915082860160005b85811015614c1b578284038952614c09848351614033565b98850198935090840190600101614bf1565b5091979650505050505050565b600081518084526020808501945080840160005b83811015614bc85781516001600160a01b031687529582019590820190600101614c3c565b63ffffffff8316815260406020820152614c8460408201835163ffffffff169052565b60006020830151614c9d606084018263ffffffff169052565b50604083015163ffffffff811660808401525060608301516001600160a01b03811660a08401525060808301516101208060c0850152614ce1610160850183614b92565b915060a0850151603f19808685030160e0870152614cff8483614033565b935060c08701519150610100818786030181880152614d1e8584614b92565b945060e08801519250818786030184880152614d3a8584614bd3565b94508088015193505080868503016101408701525050614d5a8282614c28565b9695505050505050565b600063ffffffff80831681811415614d7e57614d7e61459c565b6001019392505050565b63ffffffff83168152604060208201526000611be56040830184614033565b6000600019821415614dbb57614dbb61459c565b5060010190565b600082614ddf57634e487b7160e01b600052601260045260246000fd5b500490565b6000816000190483118215151615614dfe57614dfe61459c565b500290565b600060ff821660ff84168060ff03821115614e2057614e2061459c565b019392505050565b60008451614e3a818460208901614007565b845190830190614e4e818360208901614007565b8451910190614e61818360208801614007565b0195945050505050565b602081526000613e686020830184614b92565b63ffffffff8a811682528981166020830152881660408201526001600160a01b038716606082015261012060808201819052600090614ebf83820189614033565b905082810360a0840152614ed38188614033565b905082810360c0840152614ee78187614b92565b905082810360e0840152614efb8186614bd3565b9050828103610100840152614f108185614c28565b9c9b505050505050505050505050565b6001600160a01b0385811682528416602082015260408101839052608060608201819052600090614d5a90830184614033565b600060208284031215614f6557600080fd5b8151613e6881613e3556fe68747470733a2f2f6261667962656968786d646b6d76766a6b736b746f7765687976777168363262776e7634766a61366c6c626c376b627a7662726765653561696d752e697066732e7733732e6c696e6b2f64656661756c745f7572692e6a736f6ea264697066735822122091780d7d4311d29a7090f491fccf6b0b873ddd342b073bef1fc57acdbe7e09f564736f6c634300080c0033",
  "libraries": {
    "InfinityMintUtil": "0x7BC11e6ceaD3F04Ee56e735Ca70199FB5Bf4aCC8"
  },
  "devdoc": {
    "author": "Llydia Cross",
    "events": {
      "TokenMinted(uint32,bytes,address)": {
        "details": "will be changed to TokenMinted soon"
      },
      "TokenPreviewMinted(uint32,bytes,address)": {
        "details": "will be changed to TokenPreviewMinted soon"
      }
    },
    "kind": "dev",
    "methods": {
      "approve(address,uint256)": {
        "details": "will Throw if tokenId does not exist"
      },
      "depositStickerRoyalty(uint32)": {
        "details": "the amount that is paid into this function is defined by the sticker price set by the token owner. The royalty controller cuts up the deposited tokens even more depending on if there are any splits."
      },
      "getPreview()": {
        "details": "This method is the most gas intensive method in InfinityMint, how ever there is a trade off in the fact that that MintPreview is insanely cheap and does not need a lot of gas. I suggest using low previewCount values of about 2 or 3. Anything higher is dependant in your project configuartion and how much you care about gas prices."
      },
      "implicitMint(address,uint32,uint32,uint32[],bytes,uint32[],string[])": {
        "details": "This is the cheapest way to get InfinityMint to mint something as it literally decides no values on chain. This method can also be called by a rollup solution or something or be used as a way to literally mint anything.",
        "params": {
          "assets": "the assets for this token",
          "colours": "the colours of this token",
          "pathId": "the pathid you want to mint",
          "pathSize": "the size of this path (for colour generation)",
          "receiver": "the address to receive the mint"
        }
      },
      "isApprovedOrOwner(address,uint256)": {
        "details": "same as open zepps"
      },
      "mintArguments(bytes)": {
        "details": "must have byteMint enabled in valuesController"
      },
      "mintPreview(uint32)": {
        "details": "This will wipe other previews once called.",
        "params": {
          "index": "the index of the preview to mint"
        }
      },
      "ownerOf(uint256)": {
        "details": "will Throw if the token does not exist"
      },
      "safeTransferFrom(address,address,uint256)": {
        "details": "Emits a {Transfer} event."
      },
      "safeTransferFrom(address,address,uint256,bytes)": {
        "details": "Emits a {Transfer} event."
      },
      "setMinterController(address)": {
        "details": "Contracts must inherit the the same interfaces this contract has been built with, so version 1 Omega stuff."
      },
      "setRoyaltyController(address)": {
        "details": "Contracts must inherit the the same interfaces this contract has been built with, so version 1 Omega stuff."
      },
      "setStorageController(address)": {
        "details": "Contracts must inherit the the same interfaces this contract has been built with, so version 1 Omega stuff."
      },
      "setTokenURI(uint32,string)": {
        "details": "you need to call this from an approved address for the token",
        "params": {
          "json": "an IFPS link or a",
          "tokenId": "the tokenId"
        }
      },
      "supportsInterface(bytes4)": {
        "details": "See {IERC165-supportsInterface}."
      },
      "tokenPrice()": {
        "details": "the royalty controller actually controls the token price so in order to change it you must send tx to that contract."
      },
      "totalSupply()": {
        "details": "Returns the max supply of tokens, not the amount that have been minted. (so the tokenId)"
      },
      "transferBatch(uint256[],address)": {
        "details": "must be split up into chunks of 32"
      },
      "transferFrom(address,address,uint256)": {
        "details": "Emits a {Transfer} event."
      },
      "withdraw()": {
        "details": "The totals that the sender can withdraw is managed by the royalty controller"
      }
    },
    "title": "InfinityMint ERC721 Implementation",
    "version": 1
  },
  "userdoc": {
    "events": {
      "TokenPreviewComplete(address,uint256)": {
        "notice": "Fired when ever a preview has been completed"
      }
    },
    "kind": "user",
    "methods": {
      "approve(address,uint256)": {
        "notice": "Sets an approved adress for this token"
      },
      "balanceOf(address)": {
        "notice": "blanceOf returns the number of tokens an address currently holds."
      },
      "constructor": {
        "notice": "InfinityMint Constructor takes tokenName and tokenSymbol and the various destinations of controller contracts"
      },
      "currentTokenId()": {
        "notice": "numerical increment of the current tokenId"
      },
      "depositStickerRoyalty(uint32)": {
        "notice": "this can only be called by sticker contracts and is used to pay back the contract owner their sticker cut TODO: Turn this into a non static function capable of accepting payments not just from the sticker"
      },
      "depositSystemRoyalty(uint32)": {
        "notice": "Allows approved contracts to deposit royalty types"
      },
      "exists(uint256)": {
        "notice": "Returns true if a token exists."
      },
      "getApproved(uint256)": {
        "notice": "Returns the approved adress for this token."
      },
      "getPreview()": {
        "notice": "Returns a selection of preview mints, these are ghost NFTs which can be chosen from. Their generation values are based off of eachover due to the nature of the number system."
      },
      "implicitMint(address,uint32,uint32,uint32[],bytes,uint32[],string[])": {
        "notice": "Allows approved or the deployer to pick exactly what token they would like to mint. Does not check if assets/colours/mintData is valid. Implicitly assets what ever."
      },
      "isApprovedForAll(address,address)": {
        "notice": "Will returns true if the operator is approved by the owner address"
      },
      "isApprovedOrOwner(address,uint256)": {
        "notice": "will returns true if the address is apprroved for all, approved operator or is the owner of a token"
      },
      "mint()": {
        "notice": "Public method to mint a token taking no bytes argument"
      },
      "mintArguments(bytes)": {
        "notice": "Public method to mint a token but taking input data in the form of packed bytes"
      },
      "mintPreview(uint32)": {
        "notice": "Mints a preview. Index is relative to the sender and is the index of the preview in the users preview list"
      },
      "minterController()": {
        "notice": "Interface set to the location of the minter controller which controls how InfinityMint mints, is set in constructor and can be modified through setDestinations"
      },
      "mintsEnabled()": {
        "notice": "will disallow mints if set to true"
      },
      "name()": {
        "notice": "Returns the name of the ERC721  for display on places like Etherscan"
      },
      "ownerOf(uint256)": {
        "notice": "Returns the owner of a current token"
      },
      "royaltyController()": {
        "notice": "Interface set to the location of the royalty controller which controls how  picks random numbers and primes, is set in constructor and can be modified through setDestinations"
      },
      "safeTransferFrom(address,address,uint256)": {
        "notice": "Just like the method above except with no data field we pass to the implemeting contract."
      },
      "safeTransferFrom(address,address,uint256,bytes)": {
        "notice": "Just like transferFrom except we will check if the to address is a contract and is an IERC721Receiver implementer"
      },
      "setApprovalForAll(address,bool)": {
        "notice": "Will approve an operator for the senders tokens"
      },
      "setMinterController(address)": {
        "notice": "Sets the destinations of the minter contract"
      },
      "setMintsEnabled(bool)": {
        "notice": "Toggles mints allowing people to either mint or not mint tokens."
      },
      "setRoyaltyController(address)": {
        "notice": "Sets the destinations of the royalty contract"
      },
      "setStorageController(address)": {
        "notice": "Sets the destinations of the storage contract"
      },
      "setTokenURI(uint32,string)": {
        "notice": "sets the token URI"
      },
      "storageController()": {
        "notice": "Interface set to the location of the storage controller, is set in constructor and cannot be modified."
      },
      "supportsInterface(bytes4)": {
        "notice": "this is used by opensea/polyscan to detect our ERC721"
      },
      "symbol()": {
        "notice": "Returns the symbol of the ERC721 for display on places like Polyscan"
      },
      "tokenPrice()": {
        "notice": "Returns the current price of a mint."
      },
      "tokenURI(uint256)": {
        "notice": "returns the tokenURI for a token, will return the"
      },
      "totalSupply()": {
        "notice": "the total supply of tokens"
      },
      "transferBatch(uint256[],address)": {
        "notice": "Allows the ability for multiple tokens to be transfered at once."
      },
      "transferFrom(address,address,uint256)": {
        "notice": "Transfers a token fsrom one address to another. Use safeTransferFrom as that will double check that the address you send this token too is a contract that can actually receive it."
      },
      "valuesController()": {
        "notice": "Interface set to the location of the values controller responsible for managing global variables across the smart contract syste,, is set in constructor and cannot be modified."
      },
      "withdraw()": {
        "notice": "Allows you to withdraw your earnings from the contract."
      }
    },
    "notice": "@dev",
    "version": 1
  },
  "storageLayout": {
    "storage": [
      {
        "astId": 704,
        "contract": "contracts/InfinityMint.sol:InfinityMint",
        "label": "tokens",
        "offset": 0,
        "slot": "0",
        "type": "t_mapping(t_uint256,t_address)"
      },
      {
        "astId": 709,
        "contract": "contracts/InfinityMint.sol:InfinityMint",
        "label": "uri",
        "offset": 0,
        "slot": "1",
        "type": "t_mapping(t_uint256,t_string_storage)"
      },
      {
        "astId": 714,
        "contract": "contracts/InfinityMint.sol:InfinityMint",
        "label": "approvedTokens",
        "offset": 0,
        "slot": "2",
        "type": "t_mapping(t_uint256,t_address)"
      },
      {
        "astId": 721,
        "contract": "contracts/InfinityMint.sol:InfinityMint",
        "label": "operators",
        "offset": 0,
        "slot": "3",
        "type": "t_mapping(t_address,t_mapping(t_address,t_bool))"
      },
      {
        "astId": 726,
        "contract": "contracts/InfinityMint.sol:InfinityMint",
        "label": "balance",
        "offset": 0,
        "slot": "4",
        "type": "t_mapping(t_address,t_uint256)"
      },
      {
        "astId": 729,
        "contract": "contracts/InfinityMint.sol:InfinityMint",
        "label": "_name",
        "offset": 0,
        "slot": "5",
        "type": "t_string_storage"
      },
      {
        "astId": 732,
        "contract": "contracts/InfinityMint.sol:InfinityMint",
        "label": "_symbol",
        "offset": 0,
        "slot": "6",
        "type": "t_string_storage"
      },
      {
        "astId": 458,
        "contract": "contracts/InfinityMint.sol:InfinityMint",
        "label": "deployer",
        "offset": 0,
        "slot": "7",
        "type": "t_address"
      },
      {
        "astId": 461,
        "contract": "contracts/InfinityMint.sol:InfinityMint",
        "label": "executionCount",
        "offset": 0,
        "slot": "8",
        "type": "t_uint256"
      },
      {
        "astId": 465,
        "contract": "contracts/InfinityMint.sol:InfinityMint",
        "label": "approved",
        "offset": 0,
        "slot": "9",
        "type": "t_mapping(t_address,t_bool)"
      },
      {
        "astId": 1500,
        "contract": "contracts/InfinityMint.sol:InfinityMint",
        "label": "storageController",
        "offset": 0,
        "slot": "10",
        "type": "t_contract(InfinityMintStorage)6813"
      },
      {
        "astId": 1504,
        "contract": "contracts/InfinityMint.sol:InfinityMint",
        "label": "minterController",
        "offset": 0,
        "slot": "11",
        "type": "t_contract(Minter)7635"
      },
      {
        "astId": 1508,
        "contract": "contracts/InfinityMint.sol:InfinityMint",
        "label": "valuesController",
        "offset": 0,
        "slot": "12",
        "type": "t_contract(InfinityMintValues)7209"
      },
      {
        "astId": 1512,
        "contract": "contracts/InfinityMint.sol:InfinityMint",
        "label": "royaltyController",
        "offset": 0,
        "slot": "13",
        "type": "t_contract(Royalty)8271"
      },
      {
        "astId": 1540,
        "contract": "contracts/InfinityMint.sol:InfinityMint",
        "label": "currentTokenId",
        "offset": 20,
        "slot": "13",
        "type": "t_uint32"
      },
      {
        "astId": 1543,
        "contract": "contracts/InfinityMint.sol:InfinityMint",
        "label": "mintsEnabled",
        "offset": 24,
        "slot": "13",
        "type": "t_bool"
      }
    ],
    "types": {
      "t_address": {
        "encoding": "inplace",
        "label": "address",
        "numberOfBytes": "20"
      },
      "t_bool": {
        "encoding": "inplace",
        "label": "bool",
        "numberOfBytes": "1"
      },
      "t_contract(InfinityMintStorage)6813": {
        "encoding": "inplace",
        "label": "contract InfinityMintStorage",
        "numberOfBytes": "20"
      },
      "t_contract(InfinityMintValues)7209": {
        "encoding": "inplace",
        "label": "contract InfinityMintValues",
        "numberOfBytes": "20"
      },
      "t_contract(Minter)7635": {
        "encoding": "inplace",
        "label": "contract Minter",
        "numberOfBytes": "20"
      },
      "t_contract(Royalty)8271": {
        "encoding": "inplace",
        "label": "contract Royalty",
        "numberOfBytes": "20"
      },
      "t_mapping(t_address,t_bool)": {
        "encoding": "mapping",
        "key": "t_address",
        "label": "mapping(address => bool)",
        "numberOfBytes": "32",
        "value": "t_bool"
      },
      "t_mapping(t_address,t_mapping(t_address,t_bool))": {
        "encoding": "mapping",
        "key": "t_address",
        "label": "mapping(address => mapping(address => bool))",
        "numberOfBytes": "32",
        "value": "t_mapping(t_address,t_bool)"
      },
      "t_mapping(t_address,t_uint256)": {
        "encoding": "mapping",
        "key": "t_address",
        "label": "mapping(address => uint256)",
        "numberOfBytes": "32",
        "value": "t_uint256"
      },
      "t_mapping(t_uint256,t_address)": {
        "encoding": "mapping",
        "key": "t_uint256",
        "label": "mapping(uint256 => address)",
        "numberOfBytes": "32",
        "value": "t_address"
      },
      "t_mapping(t_uint256,t_string_storage)": {
        "encoding": "mapping",
        "key": "t_uint256",
        "label": "mapping(uint256 => string)",
        "numberOfBytes": "32",
        "value": "t_string_storage"
      },
      "t_string_storage": {
        "encoding": "bytes",
        "label": "string",
        "numberOfBytes": "32"
      },
      "t_uint256": {
        "encoding": "inplace",
        "label": "uint256",
        "numberOfBytes": "32"
      },
      "t_uint32": {
        "encoding": "inplace",
        "label": "uint32",
        "numberOfBytes": "4"
      }
    }
  }
}