{
  "address": "0x8d7BDd3BF16412F251c35B12fe099CBEBBe928b3",
  "abi": [
    {
      "inputs": [
        {
          "internalType": "string",
          "name": "_tokenURI",
          "type": "string"
        },
        {
          "internalType": "string",
          "name": "_tokenName",
          "type": "string"
        },
        {
          "internalType": "string",
          "name": "_tokenSymbol",
          "type": "string"
        },
        {
          "internalType": "address",
          "name": "redemptionDestination",
          "type": "address"
        },
        {
          "internalType": "address",
          "name": "linkerDestination",
          "type": "address"
        },
        {
          "internalType": "address",
          "name": "parentERC721",
          "type": "address"
        }
      ],
      "stateMutability": "nonpayable",
      "type": "constructor"
    },
    {
      "anonymous": false,
      "inputs": [
        {
          "indexed": true,
          "internalType": "address",
          "name": "owner",
          "type": "address"
        },
        {
          "indexed": true,
          "internalType": "address",
          "name": "approved",
          "type": "address"
        },
        {
          "indexed": true,
          "internalType": "uint256",
          "name": "tokenId",
          "type": "uint256"
        }
      ],
      "name": "Approval",
      "type": "event"
    },
    {
      "anonymous": false,
      "inputs": [
        {
          "indexed": true,
          "internalType": "address",
          "name": "owner",
          "type": "address"
        },
        {
          "indexed": true,
          "internalType": "address",
          "name": "operator",
          "type": "address"
        },
        {
          "indexed": false,
          "internalType": "bool",
          "name": "approved",
          "type": "bool"
        }
      ],
      "name": "ApprovalForAll",
      "type": "event"
    },
    {
      "anonymous": false,
      "inputs": [
        {
          "indexed": true,
          "internalType": "address",
          "name": "sender",
          "type": "address"
        },
        {
          "indexed": true,
          "internalType": "address",
          "name": "changee",
          "type": "address"
        },
        {
          "indexed": false,
          "internalType": "bool",
          "name": "value",
          "type": "bool"
        }
      ],
      "name": "PermissionChange",
      "type": "event"
    },
    {
      "anonymous": false,
      "inputs": [
        {
          "indexed": true,
          "internalType": "address",
          "name": "from",
          "type": "address"
        },
        {
          "indexed": true,
          "internalType": "address",
          "name": "to",
          "type": "address"
        },
        {
          "indexed": true,
          "internalType": "uint256",
          "name": "tokenId",
          "type": "uint256"
        }
      ],
      "name": "Transfer",
      "type": "event"
    },
    {
      "anonymous": false,
      "inputs": [
        {
          "indexed": true,
          "internalType": "address",
          "name": "from",
          "type": "address"
        },
        {
          "indexed": true,
          "internalType": "address",
          "name": "to",
          "type": "address"
        }
      ],
      "name": "TransferedOwnership",
      "type": "event"
    },
    {
      "inputs": [
        {
          "internalType": "address",
          "name": "_to",
          "type": "address"
        },
        {
          "internalType": "uint256",
          "name": "_tokenId",
          "type": "uint256"
        }
      ],
      "name": "approve",
      "outputs": [],
      "stateMutability": "nonpayable",
      "type": "function"
    },
    {
      "inputs": [
        {
          "internalType": "address",
          "name": "",
          "type": "address"
        }
      ],
      "name": "approved",
      "outputs": [
        {
          "internalType": "bool",
          "name": "",
          "type": "bool"
        }
      ],
      "stateMutability": "view",
      "type": "function"
    },
    {
      "inputs": [
        {
          "internalType": "address",
          "name": "_owner",
          "type": "address"
        }
      ],
      "name": "balanceOf",
      "outputs": [
        {
          "internalType": "uint256",
          "name": "",
          "type": "uint256"
        }
      ],
      "stateMutability": "view",
      "type": "function"
    },
    {
      "inputs": [
        {
          "internalType": "uint256",
          "name": "parentTokenId",
          "type": "uint256"
        }
      ],
      "name": "canGetProofOfRedemption",
      "outputs": [
        {
          "internalType": "bool",
          "name": "",
          "type": "bool"
        }
      ],
      "stateMutability": "view",
      "type": "function"
    },
    {
      "inputs": [],
      "name": "deployer",
      "outputs": [
        {
          "internalType": "address",
          "name": "",
          "type": "address"
        }
      ],
      "stateMutability": "view",
      "type": "function"
    },
    {
      "inputs": [
        {
          "internalType": "uint256",
          "name": "_tokenId",
          "type": "uint256"
        }
      ],
      "name": "exists",
      "outputs": [
        {
          "internalType": "bool",
          "name": "",
          "type": "bool"
        }
      ],
      "stateMutability": "view",
      "type": "function"
    },
    {
      "inputs": [
        {
          "internalType": "address",
          "name": "sender",
          "type": "address"
        }
      ],
      "name": "forceMint",
      "outputs": [],
      "stateMutability": "nonpayable",
      "type": "function"
    },
    {
      "inputs": [
        {
          "internalType": "uint256",
          "name": "tokenId",
          "type": "uint256"
        }
      ],
      "name": "get",
      "outputs": [
        {
          "components": [
            {
              "internalType": "bool",
              "name": "valid",
              "type": "bool"
            },
            {
              "internalType": "uint256",
              "name": "redemptionTokenId",
              "type": "uint256"
            },
            {
              "internalType": "uint256",
              "name": "redeemedToken",
              "type": "uint256"
            },
            {
              "internalType": "address",
              "name": "redeemer",
              "type": "address"
            },
            {
              "internalType": "uint256",
              "name": "time",
              "type": "uint256"
            }
          ],
          "internalType": "struct Mod_RedemptionLinker.ProofOfRedemption",
          "name": "",
          "type": "tuple"
        }
      ],
      "stateMutability": "view",
      "type": "function"
    },
    {
      "inputs": [
        {
          "internalType": "uint256",
          "name": "_tokenId",
          "type": "uint256"
        }
      ],
      "name": "getApproved",
      "outputs": [
        {
          "internalType": "address",
          "name": "",
          "type": "address"
        }
      ],
      "stateMutability": "view",
      "type": "function"
    },
    {
      "inputs": [
        {
          "internalType": "uint256",
          "name": "parentTokenId",
          "type": "uint256"
        }
      ],
      "name": "getProofOfRedemption",
      "outputs": [
        {
          "components": [
            {
              "internalType": "bool",
              "name": "valid",
              "type": "bool"
            },
            {
              "internalType": "uint256",
              "name": "redemptionTokenId",
              "type": "uint256"
            },
            {
              "internalType": "uint256",
              "name": "redeemedToken",
              "type": "uint256"
            },
            {
              "internalType": "address",
              "name": "redeemer",
              "type": "address"
            },
            {
              "internalType": "uint256",
              "name": "time",
              "type": "uint256"
            }
          ],
          "internalType": "struct Mod_RedemptionLinker.ProofOfRedemption",
          "name": "",
          "type": "tuple"
        }
      ],
      "stateMutability": "view",
      "type": "function"
    },
    {
      "inputs": [
        {
          "internalType": "address",
          "name": "_owner",
          "type": "address"
        },
        {
          "internalType": "address",
          "name": "_operator",
          "type": "address"
        }
      ],
      "name": "isApprovedForAll",
      "outputs": [
        {
          "internalType": "bool",
          "name": "",
          "type": "bool"
        }
      ],
      "stateMutability": "view",
      "type": "function"
    },
    {
      "inputs": [
        {
          "internalType": "address",
          "name": "addr",
          "type": "address"
        },
        {
          "internalType": "uint256",
          "name": "tokenId",
          "type": "uint256"
        }
      ],
      "name": "isApprovedOrOwner",
      "outputs": [
        {
          "internalType": "bool",
          "name": "",
          "type": "bool"
        }
      ],
      "stateMutability": "view",
      "type": "function"
    },
    {
      "inputs": [
        {
          "internalType": "address",
          "name": "addr",
          "type": "address"
        }
      ],
      "name": "isAuthenticated",
      "outputs": [
        {
          "internalType": "bool",
          "name": "",
          "type": "bool"
        }
      ],
      "stateMutability": "view",
      "type": "function"
    },
    {
      "inputs": [
        {
          "internalType": "uint256",
          "name": "parentTokenId",
          "type": "uint256"
        }
      ],
      "name": "mintProofOfRedemption",
      "outputs": [],
      "stateMutability": "nonpayable",
      "type": "function"
    },
    {
      "inputs": [
        {
          "internalType": "address[]",
          "name": "addrs",
          "type": "address[]"
        }
      ],
      "name": "multiApprove",
      "outputs": [],
      "stateMutability": "nonpayable",
      "type": "function"
    },
    {
      "inputs": [],
      "name": "name",
      "outputs": [
        {
          "internalType": "string",
          "name": "",
          "type": "string"
        }
      ],
      "stateMutability": "view",
      "type": "function"
    },
    {
      "inputs": [
        {
          "internalType": "uint256",
          "name": "_tokenId",
          "type": "uint256"
        }
      ],
      "name": "ownerOf",
      "outputs": [
        {
          "internalType": "address",
          "name": "",
          "type": "address"
        }
      ],
      "stateMutability": "view",
      "type": "function"
    },
    {
      "inputs": [
        {
          "internalType": "address",
          "name": "_from",
          "type": "address"
        },
        {
          "internalType": "address",
          "name": "_to",
          "type": "address"
        },
        {
          "internalType": "uint256",
          "name": "_tokenId",
          "type": "uint256"
        }
      ],
      "name": "safeTransferFrom",
      "outputs": [],
      "stateMutability": "nonpayable",
      "type": "function"
    },
    {
      "inputs": [
        {
          "internalType": "address",
          "name": "_from",
          "type": "address"
        },
        {
          "internalType": "address",
          "name": "_to",
          "type": "address"
        },
        {
          "internalType": "uint256",
          "name": "_tokenId",
          "type": "uint256"
        },
        {
          "internalType": "bytes",
          "name": "_data",
          "type": "bytes"
        }
      ],
      "name": "safeTransferFrom",
      "outputs": [],
      "stateMutability": "nonpayable",
      "type": "function"
    },
    {
      "inputs": [
        {
          "internalType": "address",
          "name": "_operator",
          "type": "address"
        },
        {
          "internalType": "bool",
          "name": "_approved",
          "type": "bool"
        }
      ],
      "name": "setApprovalForAll",
      "outputs": [],
      "stateMutability": "nonpayable",
      "type": "function"
    },
    {
      "inputs": [
        {
          "internalType": "string",
          "name": "uri",
          "type": "string"
        }
      ],
      "name": "setForcedTokenURI",
      "outputs": [],
      "stateMutability": "nonpayable",
      "type": "function"
    },
    {
      "inputs": [
        {
          "internalType": "address",
          "name": "addr",
          "type": "address"
        },
        {
          "internalType": "bool",
          "name": "value",
          "type": "bool"
        }
      ],
      "name": "setPrivilages",
      "outputs": [],
      "stateMutability": "nonpayable",
      "type": "function"
    },
    {
      "inputs": [
        {
          "internalType": "uint256",
          "name": "_tokenId",
          "type": "uint256"
        },
        {
          "internalType": "string",
          "name": "_newURI",
          "type": "string"
        }
      ],
      "name": "setTokenURI",
      "outputs": [],
      "stateMutability": "nonpayable",
      "type": "function"
    },
    {
      "inputs": [
        {
          "internalType": "bytes4",
          "name": "interfaceId",
          "type": "bytes4"
        }
      ],
      "name": "supportsInterface",
      "outputs": [
        {
          "internalType": "bool",
          "name": "",
          "type": "bool"
        }
      ],
      "stateMutability": "view",
      "type": "function"
    },
    {
      "inputs": [],
      "name": "symbol",
      "outputs": [
        {
          "internalType": "string",
          "name": "",
          "type": "string"
        }
      ],
      "stateMutability": "view",
      "type": "function"
    },
    {
      "inputs": [
        {
          "internalType": "uint256",
          "name": "_tokenId",
          "type": "uint256"
        }
      ],
      "name": "tokenURI",
      "outputs": [
        {
          "internalType": "string",
          "name": "",
          "type": "string"
        }
      ],
      "stateMutability": "view",
      "type": "function"
    },
    {
      "inputs": [
        {
          "internalType": "address",
          "name": "_from",
          "type": "address"
        },
        {
          "internalType": "address",
          "name": "_to",
          "type": "address"
        },
        {
          "internalType": "uint256",
          "name": "_tokenId",
          "type": "uint256"
        }
      ],
      "name": "transferFrom",
      "outputs": [],
      "stateMutability": "nonpayable",
      "type": "function"
    },
    {
      "inputs": [
        {
          "internalType": "address",
          "name": "addr",
          "type": "address"
        }
      ],
      "name": "transferOwnership",
      "outputs": [],
      "stateMutability": "nonpayable",
      "type": "function"
    }
  ],
  "transactionHash": "0x0bd7a27d7128da517adaff093537ec148f5c48b35489799a3c53f1c7dfa263d0",
  "args": [
    "",
    "AWEdacity Tickets: Proof Of Moment",
    "PoM",
    "0x8c3Ae0430eab1549606A1D5aA31441Eb7Cb5C014",
    "0xE11028f7CE93bf98de7b356a3184C0c25b9426ab",
    "0xC8EFcFb0F41Db995b7F412D155B9953689bdcB6c"
  ],
  "numDeployments": 1,
  "solcInputHash": "6e9aa7b6a6e3ea130e840e49f0c21c0a",
  "bytecode": "0x60806040523480156200001157600080fd5b50604051620020c4380380620020c4833981016040819052620000349162000297565b8451859085906200004d90600590602085019062000107565b5080516200006390600690602084019062000107565b505060078054336001600160a01b0319918216811790925560009182526009602090815260408320805460ff19166001179055600892909255600b805482166001600160a01b0388811691909117909155600c80549092169086161790558751620000d59250600a9189019062000107565b50600d80546001600160a01b0319166001600160a01b039290921691909117905550506000601055506200039c915050565b82805462000115906200035f565b90600052602060002090601f01602090048101928262000139576000855562000184565b82601f106200015457805160ff191683800117855562000184565b8280016001018555821562000184579182015b828111156200018457825182559160200191906001019062000167565b506200019292915062000196565b5090565b5b8082111562000192576000815560010162000197565b634e487b7160e01b600052604160045260246000fd5b600082601f830112620001d557600080fd5b81516001600160401b0380821115620001f257620001f2620001ad565b604051601f8301601f19908116603f011681019082821181831017156200021d576200021d620001ad565b816040528381526020925086838588010111156200023a57600080fd5b600091505b838210156200025e57858201830151818301840152908201906200023f565b83821115620002705760008385830101525b9695505050505050565b80516001600160a01b03811681146200029257600080fd5b919050565b60008060008060008060c08789031215620002b157600080fd5b86516001600160401b0380821115620002c957600080fd5b620002d78a838b01620001c3565b97506020890151915080821115620002ee57600080fd5b620002fc8a838b01620001c3565b965060408901519150808211156200031357600080fd5b506200032289828a01620001c3565b94505062000333606088016200027a565b925062000343608088016200027a565b91506200035360a088016200027a565b90509295509295509295565b600181811c908216806200037457607f821691505b602082108114156200039657634e487b7160e01b600052602260045260246000fd5b50919050565b611d1880620003ac6000396000f3fe608060405234801561001057600080fd5b50600436106101545760003560e01c806301ffc9a71461015957806306fdde0314610181578063081812fc14610196578063095ea7b3146101c15780630f762324146101d657806310a8c7a9146101e957806312b93dbf146101fc578063162094c41461020f57806323b872dd1461022257806342842e0e14610235578063430c2081146102485780634f558e791461025b5780636352211e1461026e57806370a08231146102815780637c0a7aab146102b857806394462e43146102cb5780639507d39a146102de57806395d89b4114610339578063a22cb46514610341578063b88d4fde14610354578063c825fd3314610367578063c87b56dd1461037a578063d15d41501461038d578063d5f39488146103a0578063d8b964e6146103b3578063e985e9c5146103d6578063f2fde38b146103e9578063fe684c0e146103fc575b600080fd5b61016c610167366004611786565b61040f565b60405190151581526020015b60405180910390f35b610189610461565b60405161017891906117f7565b6101a96101a436600461180a565b6104f3565b6040516001600160a01b039091168152602001610178565b6101d46101cf36600461183f565b61050e565b005b61016c6101e436600461180a565b610663565b6101d46101f73660046118af565b6107e0565b6101d461020a36600461180a565b610877565b6101d461021d3660046119d2565b610bde565b6101d4610230366004611a18565b610c65565b6101d4610243366004611a18565b610dd5565b61016c61025636600461183f565b610df0565b61016c61026936600461180a565b610e4f565b6101a961027c36600461180a565b610e6c565b6102aa61028f366004611a54565b6001600160a01b031660009081526004602052604090205490565b604051908152602001610178565b6101d46102c6366004611a6f565b610ed1565b6101d46102d9366004611a54565b610f0e565b6102f16102ec36600461180a565b610f62565b604051610178919081511515815260208083015190820152604080830151908201526060808301516001600160a01b0316908201526080918201519181019190915260a00190565b610189610fc7565b6101d461034f366004611ab1565b610fd6565b6101d4610362366004611ae8565b611043565b6102f161037536600461180a565b611055565b61018961038836600461180a565b61110f565b61016c61039b366004611a54565b6111df565b6007546101a9906001600160a01b031681565b61016c6103c1366004611a54565b60096020526000908152604090205460ff1681565b61016c6103e4366004611b63565b611218565b6101d46103f7366004611a54565b611246565b6101d461040a366004611ab1565b6112ec565b60006001600160e01b031982166380ac58cd60e01b148061044057506001600160e01b03198216635b5e139f60e01b145b8061045b57506301ffc9a760e01b6001600160e01b03198316145b92915050565b60606005805461047090611b96565b80601f016020809104026020016040519081016040528092919081815260200182805461049c90611b96565b80156104e95780601f106104be576101008083540402835291602001916104e9565b820191906000526020600020905b8154815290600101906020018083116104cc57829003601f168201915b5050505050905090565b6000908152600260205260409020546001600160a01b031690565b600061051982610e6c565b9050806001600160a01b0316836001600160a01b031614156105795760405162461bcd60e51b815260206004820152601460248201527331b0b73737ba1030b8383937bb329037bbb732b960611b60448201526064015b60405180910390fd5b336001600160a01b038216148061059557506105958133611218565b6106075760405162461bcd60e51b815260206004820152603d60248201527f4552433732313a20617070726f76652063616c6c6572206973206e6f7420746f60448201527f6b656e206f776e6572206f7220617070726f76656420666f7220616c6c0000006064820152608401610570565b60008281526002602052604080822080546001600160a01b0319166001600160a01b0387811691821790925591518593918516917f8c5be1e5ebec7d5bd14f71427d1e84f3dd0314c0f7b2291e5b200ac8c7c3b92591a4505050565b600d54604051634f558e7960e01b8152600481018390526000916001600160a01b031690634f558e7990602401602060405180830381865afa1580156106ad573d6000803e3d6000fd5b505050506040513d601f19601f820116820180604052508101906106d19190611bd1565b6106dd57506000919050565b600d546001600160a01b031663430c208133846040518363ffffffff1660e01b815260040161070d929190611bee565b602060405180830381865afa15801561072a573d6000803e3d6000fd5b505050506040513d601f19601f8201168201806040525081019061074e9190611bd1565b80156107c25750600b5460405163a7771ea560e01b8152600481018490526001600160a01b039091169063a7771ea590602401602060405180830381865afa15801561079e573d6000803e3d6000fd5b505050506040513d601f19601f820116820180604052508101906107c29190611bd1565b801561045b5750506000908152600f602052604090205460ff161590565b6007546001600160a01b0316331461080a5760405162461bcd60e51b815260040161057090611c07565b805161081557600080fd5b60005b81518110156108735760016009600084848151811061083957610839611c2d565b6020908102919091018101516001600160a01b03168252810191909152604001600020805460ff1916911515919091179055600101610818565b5050565b600d546001600160a01b031663430c208133836040518363ffffffff1660e01b81526004016108a7929190611bee565b602060405180830381865afa1580156108c4573d6000803e3d6000fd5b505050506040513d601f19601f820116820180604052508101906108e89190611bd1565b6109305760405162461bcd60e51b815260206004820152601960248201527839b2b73232b9103237b2b9903737ba1037bbb7103a37b5b2b760391b6044820152606401610570565b6000818152600f602052604090205460ff16156109825760405162461bcd60e51b815260206004820152601060248201526f185b1c9958591e481c995919595b595960821b6044820152606401610570565b600b5460405163a7771ea560e01b8152600481018390526001600160a01b039091169063a7771ea590602401602060405180830381865afa1580156109cb573d6000803e3d6000fd5b505050506040513d601f19601f820116820180604052508101906109ef9190611bd1565b610a555760405162461bcd60e51b815260206004820152603160248201527f686173206e6f74206265656e2072656465656d6564207468726f75676820726560448201527019195b5c1d1a5bdb8818dbdb9d1c9858dd607a1b6064820152608401610570565b610a7133601054604051806020016040528060008152506113c7565b600c54604051630d25146b60e41b815260048101839052606060248201526013606482015272383937b7b32fb7b32fb932b232b6b83a34b7b760691b60848201523060448201526001600160a01b039091169063d25146b09060a401600060405180830381600087803b158015610ae757600080fd5b505af1158015610afb573d6000803e3d6000fd5b5050604080516060808201835260018083526010805460208086019182528587018a815260008b8152600f83528881209751885490151560ff199182161789559351888701559051600297880155875160a0810189528581528454818401818152828b018e815233998401998a524260808501908152928552600e90955299909220905181549015159416939093178355965182850155519481019490945591516003840180546001600160a01b03929092166001600160a01b0319909216919091179055925160049092019190915554610bd893509150611c59565b60105550565b6007546001600160a01b0316331480610c0657503360009081526009602052604090205460ff165b610c415760405162461bcd60e51b815260206004820152600c60248201526b1b9bdd08185c1c1c9bdd995960a21b6044820152606401610570565b60008281526001602090815260409091208251610c609284019061169a565b505050565b610c6f3382610df0565b610cb35760405162461bcd60e51b81526020600482015260156024820152743737ba1030b8383937bb32b21037b91037bbb732b960591b6044820152606401610570565b6001600160a01b038316610d035760405162461bcd60e51b815260206004820152601760248201527673656e64696e6720746f206e756c6c206164647265737360481b6044820152606401610570565b600081815260026020908152604080832080546001600160a01b03191690556001600160a01b038616835260049091528120805460019290610d46908490611c71565b90915550506001600160a01b0382166000908152600460205260408120805460019290610d74908490611c59565b909155505060008181526020819052604080822080546001600160a01b0319166001600160a01b0386811691821790925591518493918716917fddf252ad1be2c89b69c2b068fc378daa952ba7f163c4a11628f55a4df523b3ef91a4505050565b610c60838383604051806020016040528060008152506114e8565b600080610dfc83610e6c565b9050806001600160a01b0316846001600160a01b03161480610e235750610e238185611218565b80610e475750836001600160a01b0316610e3c846104f3565b6001600160a01b0316145b949350505050565b6000908152602081905260409020546001600160a01b0316151590565b6000610e7782610e4f565b610eb55760405162461bcd60e51b815260206004820152600f60248201526e1a5b9d985b1a59081d1bdad95b9259608a1b6044820152606401610570565b506000908152602081905260409020546001600160a01b031690565b6007546001600160a01b03163314610efb5760405162461bcd60e51b815260040161057090611c07565b805161087390600a90602084019061169a565b6007546001600160a01b03163314610f385760405162461bcd60e51b815260040161057090611c07565b610f5481601054604051806020016040528060008152506113c7565b601054610bd8906001611c59565b610f6a61171e565b506000908152600e6020908152604091829020825160a081018452815460ff161515815260018201549281019290925260028101549282019290925260038201546001600160a01b03166060820152600490910154608082015290565b60606006805461047090611b96565b3360008181526003602090815260408083206001600160a01b03871680855290835292819020805460ff191686151590811790915590519081529192917f17307eab39ab6107e8899845ad3d59bd9653f200f220920489ca2b5937696c3191015b60405180910390a35050565b61104f848484846114e8565b50505050565b61105d61171e565b6000828152600f602052604090205460ff166110a95760405162461bcd60e51b815260206004820152600b60248201526a696e76616c696420506f4d60a81b6044820152606401610570565b506000908152600f602090815260408083206001908101548452600e835292819020815160a081018352815460ff1615158152938101549284019290925260028201549083015260038101546001600160a01b0316606083015260040154608082015290565b600081815260016020526040902080546060919061112c90611b96565b151590506111c657600a805461114190611b96565b80601f016020809104026020016040519081016040528092919081815260200182805461116d90611b96565b80156111ba5780601f1061118f576101008083540402835291602001916111ba565b820191906000526020600020905b81548152906001019060200180831161119d57829003601f168201915b50505050509050919050565b6000828152600160205260409020805461114190611b96565b6007546000906001600160a01b038381169116148061045b5750506001600160a01b031660009081526009602052604090205460ff1690565b6001600160a01b03918216600090815260036020908152604080832093909416825291909152205460ff1690565b6007546001600160a01b031633146112705760405162461bcd60e51b815260040161057090611c07565b600780546001600160a01b03908116600090815260096020526040808220805460ff1990811690915584546001600160a01b03191693861693841790945582825280822080549094166001179093559151909133917f93091b3f3cd424efabc74e181f3799f3476ed758412561ed3b29515c51f567529190a350565b6007546001600160a01b031633146113165760405162461bcd60e51b815260040161057090611c07565b6007546001600160a01b038381169116141561136d5760405162461bcd60e51b815260206004820152601660248201527531b0b73737ba1036b7b234b33c903232b83637bcb2b960511b6044820152606401610570565b6001600160a01b038216600081815260096020908152604091829020805460ff1916851515908117909155915191825233917ff38de818d000d07d091732dd783c6855722d7bc1934d92b7635133289d3416959101611037565b6001600160a01b0383166114085760405162461bcd60e51b81526020600482015260086024820152670c1e0c081b5a5b9d60c21b6044820152606401610570565b61141182610e4f565b1561144f5760405162461bcd60e51b815260206004820152600e60248201526d185b1c9958591e481b5a5b9d195960921b6044820152606401610570565b6001600160a01b0383166000908152600460205260408120805460019290611478908490611c59565b909155505060008281526020819052604080822080546001600160a01b0319166001600160a01b03871690811790915590518492907fddf252ad1be2c89b69c2b068fc378daa952ba7f163c4a11628f55a4df523b3ef908290a46114df3330858585611558565b610c6057600080fd5b6114f3848484610c65565b6115003385858585611558565b61104f5760405162461bcd60e51b815260206004820152602360248201527f45524337323120526563656976657220436f6e6669726d6174696f6e2049732060448201526210985960ea1b6064820152608401610570565b6000833b61156857506001611691565b604051630a85bd0160e11b81526001600160a01b0385169063150b7a029061159a908990899088908890600401611c88565b6020604051808303816000875af19250505080156115d5575060408051601f3d908101601f191682019092526115d291810190611cc5565b60015b61167b573d808015611603576040519150601f19603f3d011682016040523d82523d6000602084013e611608565b606091505b5080516116735760405162461bcd60e51b815260206004820152603360248201527f5468697320636f6e747261637420646f6573206e6f7420696d706c656d656e746044820152721030b71024a2a9219b9918a932b1b2b4bb32b960691b6064820152608401610570565b805181602001fd5b6001600160e01b031916630a85bd0160e11b1490505b95945050505050565b8280546116a690611b96565b90600052602060002090601f0160209004810192826116c8576000855561170e565b82601f106116e157805160ff191683800117855561170e565b8280016001018555821561170e579182015b8281111561170e5782518255916020019190600101906116f3565b5061171a929150611758565b5090565b6040518060a00160405280600015158152602001600081526020016000815260200160006001600160a01b03168152602001600081525090565b5b8082111561171a5760008155600101611759565b6001600160e01b03198116811461178357600080fd5b50565b60006020828403121561179857600080fd5b81356117a38161176d565b9392505050565b6000815180845260005b818110156117d0576020818501810151868301820152016117b4565b818111156117e2576000602083870101525b50601f01601f19169290920160200192915050565b6020815260006117a360208301846117aa565b60006020828403121561181c57600080fd5b5035919050565b80356001600160a01b038116811461183a57600080fd5b919050565b6000806040838503121561185257600080fd5b61185b83611823565b946020939093013593505050565b634e487b7160e01b600052604160045260246000fd5b604051601f8201601f191681016001600160401b03811182821017156118a7576118a7611869565b604052919050565b600060208083850312156118c257600080fd5b82356001600160401b03808211156118d957600080fd5b818501915085601f8301126118ed57600080fd5b8135818111156118ff576118ff611869565b8060051b915061191084830161187f565b818152918301840191848101908884111561192a57600080fd5b938501935b8385101561194f5761194085611823565b8252938501939085019061192f565b98975050505050505050565b60006001600160401b0383111561197457611974611869565b611987601f8401601f191660200161187f565b905082815283838301111561199b57600080fd5b828260208301376000602084830101529392505050565b600082601f8301126119c357600080fd5b6117a38383356020850161195b565b600080604083850312156119e557600080fd5b8235915060208301356001600160401b03811115611a0257600080fd5b611a0e858286016119b2565b9150509250929050565b600080600060608486031215611a2d57600080fd5b611a3684611823565b9250611a4460208501611823565b9150604084013590509250925092565b600060208284031215611a6657600080fd5b6117a382611823565b600060208284031215611a8157600080fd5b81356001600160401b03811115611a9757600080fd5b610e47848285016119b2565b801515811461178357600080fd5b60008060408385031215611ac457600080fd5b611acd83611823565b91506020830135611add81611aa3565b809150509250929050565b60008060008060808587031215611afe57600080fd5b611b0785611823565b9350611b1560208601611823565b92506040850135915060608501356001600160401b03811115611b3757600080fd5b8501601f81018713611b4857600080fd5b611b578782356020840161195b565b91505092959194509250565b60008060408385031215611b7657600080fd5b611b7f83611823565b9150611b8d60208401611823565b90509250929050565b600181811c90821680611baa57607f821691505b60208210811415611bcb57634e487b7160e01b600052602260045260246000fd5b50919050565b600060208284031215611be357600080fd5b81516117a381611aa3565b6001600160a01b03929092168252602082015260400190565b6020808252600c908201526b3737ba103232b83637bcb2b960a11b604082015260600190565b634e487b7160e01b600052603260045260246000fd5b634e487b7160e01b600052601160045260246000fd5b60008219821115611c6c57611c6c611c43565b500190565b600082821015611c8357611c83611c43565b500390565b6001600160a01b0385811682528416602082015260408101839052608060608201819052600090611cbb908301846117aa565b9695505050505050565b600060208284031215611cd757600080fd5b81516117a38161176d56fea2646970667358221220d3f07496b68c84799bcb2aaf307d2653339e8dd5810f3b241d90ca3d4c962fbb64736f6c634300080c0033",
  "libraries": {
    "InfinityMintUtil": "0x7BC11e6ceaD3F04Ee56e735Ca70199FB5Bf4aCC8"
  },
  "devdoc": {
    "kind": "dev",
    "methods": {
      "approve(address,uint256)": {
        "details": "will Throw if tokenId does not exist"
      },
      "isApprovedOrOwner(address,uint256)": {
        "details": "same as open zepps"
      },
      "ownerOf(uint256)": {
        "details": "will Throw if the token does not exist"
      },
      "safeTransferFrom(address,address,uint256)": {
        "details": "Emits a {Transfer} event."
      },
      "safeTransferFrom(address,address,uint256,bytes)": {
        "details": "Emits a {Transfer} event."
      },
      "supportsInterface(bytes4)": {
        "details": "See {IERC165-supportsInterface}."
      },
      "transferFrom(address,address,uint256)": {
        "details": "Emits a {Transfer} event."
      }
    },
    "version": 1
  },
  "userdoc": {
    "kind": "user",
    "methods": {
      "approve(address,uint256)": {
        "notice": "Sets an approved adress for this token"
      },
      "balanceOf(address)": {
        "notice": "blanceOf returns the number of tokens an address currently holds."
      },
      "exists(uint256)": {
        "notice": "Returns true if a token exists."
      },
      "getApproved(uint256)": {
        "notice": "Returns the approved adress for this token."
      },
      "isApprovedForAll(address,address)": {
        "notice": "Will returns true if the operator is approved by the owner address"
      },
      "isApprovedOrOwner(address,uint256)": {
        "notice": "will returns true if the address is apprroved for all, approved operator or is the owner of a token"
      },
      "name()": {
        "notice": "Returns the name of the ERC721  for display on places like Etherscan"
      },
      "ownerOf(uint256)": {
        "notice": "Returns the owner of a current token"
      },
      "safeTransferFrom(address,address,uint256)": {
        "notice": "Just like the method above except with no data field we pass to the implemeting contract."
      },
      "safeTransferFrom(address,address,uint256,bytes)": {
        "notice": "Just like transferFrom except we will check if the to address is a contract and is an IERC721Receiver implementer"
      },
      "setApprovalForAll(address,bool)": {
        "notice": "Will approve an operator for the senders tokens"
      },
      "supportsInterface(bytes4)": {
        "notice": "this is used by opensea/polyscan to detect our ERC721"
      },
      "symbol()": {
        "notice": "Returns the symbol of the ERC721 for display on places like Polyscan"
      },
      "tokenURI(uint256)": {
        "notice": "Returns the tokens URI Metadata object"
      },
      "transferFrom(address,address,uint256)": {
        "notice": "Transfers a token fsrom one address to another. Use safeTransferFrom as that will double check that the address you send this token too is a contract that can actually receive it."
      }
    },
    "version": 1
  },
  "storageLayout": {
    "storage": [
      {
        "astId": 704,
        "contract": "contracts/__mods/Mod_RedemptionLinker.sol:Mod_RedemptionLinker",
        "label": "tokens",
        "offset": 0,
        "slot": "0",
        "type": "t_mapping(t_uint256,t_address)"
      },
      {
        "astId": 709,
        "contract": "contracts/__mods/Mod_RedemptionLinker.sol:Mod_RedemptionLinker",
        "label": "uri",
        "offset": 0,
        "slot": "1",
        "type": "t_mapping(t_uint256,t_string_storage)"
      },
      {
        "astId": 714,
        "contract": "contracts/__mods/Mod_RedemptionLinker.sol:Mod_RedemptionLinker",
        "label": "approvedTokens",
        "offset": 0,
        "slot": "2",
        "type": "t_mapping(t_uint256,t_address)"
      },
      {
        "astId": 721,
        "contract": "contracts/__mods/Mod_RedemptionLinker.sol:Mod_RedemptionLinker",
        "label": "operators",
        "offset": 0,
        "slot": "3",
        "type": "t_mapping(t_address,t_mapping(t_address,t_bool))"
      },
      {
        "astId": 726,
        "contract": "contracts/__mods/Mod_RedemptionLinker.sol:Mod_RedemptionLinker",
        "label": "balance",
        "offset": 0,
        "slot": "4",
        "type": "t_mapping(t_address,t_uint256)"
      },
      {
        "astId": 729,
        "contract": "contracts/__mods/Mod_RedemptionLinker.sol:Mod_RedemptionLinker",
        "label": "_name",
        "offset": 0,
        "slot": "5",
        "type": "t_string_storage"
      },
      {
        "astId": 732,
        "contract": "contracts/__mods/Mod_RedemptionLinker.sol:Mod_RedemptionLinker",
        "label": "_symbol",
        "offset": 0,
        "slot": "6",
        "type": "t_string_storage"
      },
      {
        "astId": 458,
        "contract": "contracts/__mods/Mod_RedemptionLinker.sol:Mod_RedemptionLinker",
        "label": "deployer",
        "offset": 0,
        "slot": "7",
        "type": "t_address"
      },
      {
        "astId": 461,
        "contract": "contracts/__mods/Mod_RedemptionLinker.sol:Mod_RedemptionLinker",
        "label": "executionCount",
        "offset": 0,
        "slot": "8",
        "type": "t_uint256"
      },
      {
        "astId": 465,
        "contract": "contracts/__mods/Mod_RedemptionLinker.sol:Mod_RedemptionLinker",
        "label": "approved",
        "offset": 0,
        "slot": "9",
        "type": "t_mapping(t_address,t_bool)"
      },
      {
        "astId": 10894,
        "contract": "contracts/__mods/Mod_RedemptionLinker.sol:Mod_RedemptionLinker",
        "label": "forcedUri",
        "offset": 0,
        "slot": "10",
        "type": "t_string_storage"
      },
      {
        "astId": 10897,
        "contract": "contracts/__mods/Mod_RedemptionLinker.sol:Mod_RedemptionLinker",
        "label": "redemption",
        "offset": 0,
        "slot": "11",
        "type": "t_contract(Mod_Redemption)10879"
      },
      {
        "astId": 10900,
        "contract": "contracts/__mods/Mod_RedemptionLinker.sol:Mod_RedemptionLinker",
        "label": "linker",
        "offset": 0,
        "slot": "12",
        "type": "t_contract(InfinityMintLinker)5562"
      },
      {
        "astId": 10903,
        "contract": "contracts/__mods/Mod_RedemptionLinker.sol:Mod_RedemptionLinker",
        "label": "parent",
        "offset": 0,
        "slot": "13",
        "type": "t_contract(ERC721)1313"
      },
      {
        "astId": 10926,
        "contract": "contracts/__mods/Mod_RedemptionLinker.sol:Mod_RedemptionLinker",
        "label": "redemptions",
        "offset": 0,
        "slot": "14",
        "type": "t_mapping(t_uint256,t_struct(ProofOfRedemption)10914_storage)"
      },
      {
        "astId": 10931,
        "contract": "contracts/__mods/Mod_RedemptionLinker.sol:Mod_RedemptionLinker",
        "label": "tokenIdTable",
        "offset": 0,
        "slot": "15",
        "type": "t_mapping(t_uint256,t_struct(Map)10921_storage)"
      },
      {
        "astId": 10933,
        "contract": "contracts/__mods/Mod_RedemptionLinker.sol:Mod_RedemptionLinker",
        "label": "redemptionTokenId",
        "offset": 0,
        "slot": "16",
        "type": "t_uint256"
      }
    ],
    "types": {
      "t_address": {
        "encoding": "inplace",
        "label": "address",
        "numberOfBytes": "20"
      },
      "t_bool": {
        "encoding": "inplace",
        "label": "bool",
        "numberOfBytes": "1"
      },
      "t_contract(ERC721)1313": {
        "encoding": "inplace",
        "label": "contract ERC721",
        "numberOfBytes": "20"
      },
      "t_contract(InfinityMintLinker)5562": {
        "encoding": "inplace",
        "label": "contract InfinityMintLinker",
        "numberOfBytes": "20"
      },
      "t_contract(Mod_Redemption)10879": {
        "encoding": "inplace",
        "label": "contract Mod_Redemption",
        "numberOfBytes": "20"
      },
      "t_mapping(t_address,t_bool)": {
        "encoding": "mapping",
        "key": "t_address",
        "label": "mapping(address => bool)",
        "numberOfBytes": "32",
        "value": "t_bool"
      },
      "t_mapping(t_address,t_mapping(t_address,t_bool))": {
        "encoding": "mapping",
        "key": "t_address",
        "label": "mapping(address => mapping(address => bool))",
        "numberOfBytes": "32",
        "value": "t_mapping(t_address,t_bool)"
      },
      "t_mapping(t_address,t_uint256)": {
        "encoding": "mapping",
        "key": "t_address",
        "label": "mapping(address => uint256)",
        "numberOfBytes": "32",
        "value": "t_uint256"
      },
      "t_mapping(t_uint256,t_address)": {
        "encoding": "mapping",
        "key": "t_uint256",
        "label": "mapping(uint256 => address)",
        "numberOfBytes": "32",
        "value": "t_address"
      },
      "t_mapping(t_uint256,t_string_storage)": {
        "encoding": "mapping",
        "key": "t_uint256",
        "label": "mapping(uint256 => string)",
        "numberOfBytes": "32",
        "value": "t_string_storage"
      },
      "t_mapping(t_uint256,t_struct(Map)10921_storage)": {
        "encoding": "mapping",
        "key": "t_uint256",
        "label": "mapping(uint256 => struct Mod_RedemptionLinker.Map)",
        "numberOfBytes": "32",
        "value": "t_struct(Map)10921_storage"
      },
      "t_mapping(t_uint256,t_struct(ProofOfRedemption)10914_storage)": {
        "encoding": "mapping",
        "key": "t_uint256",
        "label": "mapping(uint256 => struct Mod_RedemptionLinker.ProofOfRedemption)",
        "numberOfBytes": "32",
        "value": "t_struct(ProofOfRedemption)10914_storage"
      },
      "t_string_storage": {
        "encoding": "bytes",
        "label": "string",
        "numberOfBytes": "32"
      },
      "t_struct(Map)10921_storage": {
        "encoding": "inplace",
        "label": "struct Mod_RedemptionLinker.Map",
        "members": [
          {
            "astId": 10916,
            "contract": "contracts/__mods/Mod_RedemptionLinker.sol:Mod_RedemptionLinker",
            "label": "valid",
            "offset": 0,
            "slot": "0",
            "type": "t_bool"
          },
          {
            "astId": 10918,
            "contract": "contracts/__mods/Mod_RedemptionLinker.sol:Mod_RedemptionLinker",
            "label": "redemptionTokenId",
            "offset": 0,
            "slot": "1",
            "type": "t_uint256"
          },
          {
            "astId": 10920,
            "contract": "contracts/__mods/Mod_RedemptionLinker.sol:Mod_RedemptionLinker",
            "label": "parentTokenId",
            "offset": 0,
            "slot": "2",
            "type": "t_uint256"
          }
        ],
        "numberOfBytes": "96"
      },
      "t_struct(ProofOfRedemption)10914_storage": {
        "encoding": "inplace",
        "label": "struct Mod_RedemptionLinker.ProofOfRedemption",
        "members": [
          {
            "astId": 10905,
            "contract": "contracts/__mods/Mod_RedemptionLinker.sol:Mod_RedemptionLinker",
            "label": "valid",
            "offset": 0,
            "slot": "0",
            "type": "t_bool"
          },
          {
            "astId": 10907,
            "contract": "contracts/__mods/Mod_RedemptionLinker.sol:Mod_RedemptionLinker",
            "label": "redemptionTokenId",
            "offset": 0,
            "slot": "1",
            "type": "t_uint256"
          },
          {
            "astId": 10909,
            "contract": "contracts/__mods/Mod_RedemptionLinker.sol:Mod_RedemptionLinker",
            "label": "redeemedToken",
            "offset": 0,
            "slot": "2",
            "type": "t_uint256"
          },
          {
            "astId": 10911,
            "contract": "contracts/__mods/Mod_RedemptionLinker.sol:Mod_RedemptionLinker",
            "label": "redeemer",
            "offset": 0,
            "slot": "3",
            "type": "t_address"
          },
          {
            "astId": 10913,
            "contract": "contracts/__mods/Mod_RedemptionLinker.sol:Mod_RedemptionLinker",
            "label": "time",
            "offset": 0,
            "slot": "4",
            "type": "t_uint256"
          }
        ],
        "numberOfBytes": "160"
      },
      "t_uint256": {
        "encoding": "inplace",
        "label": "uint256",
        "numberOfBytes": "32"
      }
    }
  }
}